S017000047535F57617465725F70756D705F76322E733337B9
S3150000000020180020F59D020035310000393100002E
S31500000010A70A02020002000004180FAC206A0B01B6
S3150000002000000000000000000000000000000000CA
S315000000300000000038AB03000000000000000000D4
S315000000400000000000000000FFFFFFFFFFFFFFFFB2
S31500000050FFFFFFFFFFFFFFFFFFFFFFFFFFFFFFFFAA
S3150000006000E00F000000000000000000FFFFFFFF9F
S31500000070FFFFFFFF1C000000000000000000000062
S3150000008000000000000000008039002080390020B8
S3150000009020180020F0FB030030370300C00E0020BC
S311000000A0840E002000001000000000008C
S3150000020020180020F59D020035310000393100002C
S31500000210559700003D31000045310000F39D020076
S31500000220F39D0200F39D0200F39D0200F39D020080
S3150000023049310000F39D0200F39D0200F39D020088
S31500000240294D00001502030039340000BC310000BE
S31500000250D9FA02006D0203002102030039020300ED
S315000002601902030015420000FD420000BD640000B3
S3150000027009C00000BC310000BC310000B51B000005
S31500000280BC310000BC31000019430000BC31000045
S31500000290BC310000BC310000BC310000BC310000A4
S315000002A0BC310000BC310000BC310000BC31000094
S315000002B0710203001D020300C54A0000AD020300DF
S315000002C0BC31000049ED0200BC310000BC31000029
S315000002D0BC310000BC310000BC310000BC31000064
S315000002E0BC310000BC310000BC310000BC31000054
S315000002F0BC310000BC310000BC310000BC31000044
S31100000300BC310000BC310000F39D02007F
S3150000030CF8B500BFF8BC08BC9E467047F8B500BFF0
S3150000031CF8BC08BC9E46704710B5054C237833B91B
S3150000032C044B13B10448AFF300800123237010BDB6
S3150000033C802000200000000038F4030008B5034BB1
S3150000034C1BB103490348AFF3008008BD0000000051
S3150000035C8420002038F40300154B002B08BF134BE8
S3150000036C9D46A3F5803A00218B460F461348144A46
S3150000037C121A33F0A8F90F4B002B00D098470E4BEE
S3150000038C002B00D098470020002104000D000D48DA
S3150000039C002802D00C48AFF3008033F03DF9200062
S315000003AC29000CF0E7F833F023F900BF0000080031
S315000003BC201800200000000000000000D01F0020C4
S315000003CC8039002000000000000000001FB51E4C04
S315000003DC1E48002301218DF80F3006F0D7F91C4971
S315000003EC204606F0DBF80123A360A36BDB07FCD5E4
S315000003FCA36C184CA3F500630A20B3FBF0F032F0A3
S3150000040CA3FC0022144B32F019FD0B46024613498D
S3150000041C002032F05BFB32F04BFF114920600246A4
S3150000042C01200FF019FC04AB226803F8012D012002
S3150000043C0022009008210EF09FF90021034806F0D7
S3150000044CA5F904B010BD00BF0020004000D2040086
S3150000045CAA1F00207C2100200000F83F0000594014
S3150000046C3037030037B51D4D2B78012001332B7027
S3150000047C00902B46002240F204410EF07DF92B78B9
S3150000048C022B0ED0032B19D0012B25D1144B15485A
S3150000049C1B784FF47A71594303B0BDE8304014F021
S315000004ACFDBE104A002313700F4A0821137018461C
S315000004BC042207F0EDFA0D490D48EDE7094B00242F
S315000004CC1C70094B1C700A4B04221C700821234615
S315000004DC204607F0DDFA2C7003B030BDB02F00209B
S315000004EC4F1F0020C0340020B0340020A08601002D
S315000004FCB834002070B50F4D0F4E2B68052B4FF0FE
S3150000050C00040DDC0D4B34704FF480629A674FF487
S3150000051CFA71304614F0C2FE2B6801332B6070BDA5
S3150000052C234604220A2102202C6007F0B1FA34700B
S3150000053CF5E700BFDC250020A834002000A0004011
S3150000054C034A0023137008210422184607F0A0BAA8
S3150000055CB034002038B50C4C0C48002540F6B831A8
S3150000056C257014F09BFE284601230821042207F06F
S3150000057C8FFA074B1B784FF47A7159432046BDE826
S3150000058C384014F08BBE00BFC0340020B0340020BD
S3150000059C4F1F00200D4B10B500241C70FFF716FFE3
S315000005AC0B4B1B68272B0AD840F6B831094814F0B8
S315000005BC75FE012304220821204607F069FA064934
S315000005CC0248BDE8104014F069BE00BFB8340020E4
S315000005DC7C210020B0340020A0860100124B10B5FF
S315000005EC1C6834B918F0A8FC2246104904200FF0F8
S315000005FC33FB002318460122062107F049FA002393
S3150000060C18460422082107F043FA002304220A2183
S3150000061C022007F03DFA064B03229A705A706E229E
S3150000062C1A71FF225A7110BDB815144242370300D5
S3150000063CAA1F002010B50CF059FE02280BD10A2176
S3150000064C0123042207F024FA4FF4FA710748BDE897
S3150000065C104014F023BE0AF04FFB012304220A219A
S3150000066C0220BDE8104007F013BA00BFA8340020E2
S3150000067C28B1002304220A21022007F009BA4FF4FC
S3150000068CFA71014814F00ABEA834002007B5064BCF
S3150000069C1A7801203C321A700821009011220EF0B3
S315000006AC6BF803B05DF804FB4F1F002007B5094B30
S315000006BC3B288CBF18703C224FF0010098BF1A7073
S315000006CC08210090034B11220EF056F8002003B0BF
S315000006DC5DF804FB4F1F002010B5FFF777FE40F6C0
S315000006ECB8310A4814F0DAFD094B1B68272B0CD8D5
S315000006FC40F6B831054814F0D1FD01230422082137
S3150000070C0020BDE8104007F0C3B910BDB03400207E
S3150000071C7C21002008B540F6B831054814F0BEFD22
S3150000072C012304220821002007F0B2F9002008BD9D
S3150000073CB034002008B5FFF749FE00231846042202
S3150000074C082107F0A5F9002008BDFFF78BBE08B5F8
S3150000075CFFF73CFEFFF786FE002008BD08B5C37BFD
S3150000076C1BB9C37C1BB1012B0FD0812008BD017DA9
S3150000077C82898B1C9A420BD380680EF0C8FD09F057
S3150000078C9BFC0028F1D00020F0E709F0ADFCF8E75F
S3150000079C8020EBE7F8B5C37B04464BBBC37C052B2B
S315000007AC26D8DFE803F00327323E494C057D8289C3
S315000007BCAB1C9A4201D28020F8BDADB229468068A6
S315000007CC0EF0A5FD0646A068A789023528440EF052
S315000007DCC3FD284401308742EDD32946A289A0687F
S315000007EC0EF09CFD0146304608F0B2FC002845D1BF
S315000007FC8120E1E7017D82898B1C9A42DBD38068DC
S3150000080C0EF085FD08F0C4FCF0E7037D81895A1CC7
S3150000081C9142D0D38268591C1144D05C08F0F0FC8C
S3150000082CE4E7017D82898B1C9A42C4D380680EF062
S3150000083C6EFD08F067FDD9E708F0CAFDD6E7057D21
S3150000084C8289AB1C9A42B6D3ADB2294680680EF0AB
S3150000085C5EFD0646A068A789023528440EF07CFD8D
S3150000086C284401308742A6D32946A289A0680EF0F7
S3150000087C55FD0146304608F0F3FDB7E700209BE72F
S3150000088CC37B2DE9F7430446002B48D1C37C062BCA
S3150000089C45D8DFE803F0044656667181A300057D52
S315000008AC8289AB1C9A4203D2802003B0BDE8F08348
S315000008BCADB2294680680EF02AFDA289E91C8A424F
S315000008CC064605F10203EFD3881C8242ECD3A068DE
S315000008DCC75C0EF01CFD8046A068B4F80C9005357C
S315000008EC28440EF039FD284401308145DCD32946D5
S315000008FCA289A0680EF012FD8146A06828440EF06D
S3150000090C2BFD01300544A06810FA85F500954B4681
S3150000091C4246394630460BF02DF800286AD1812024
S3150000092CC3E7057D8289EB1C9A42BDD3ADB229463D
S3150000093C80680EF0ECFC0235A368595D0BF09AF852
S3150000094CEBE7057D8289EB1C9A42ADD3ADB2294605
S3150000095C80680EF0DCFC0235A368595D0AF04EFC8B
S3150000096CDBE7017D82898B1C9A429DD380680EF051
S3150000097CCEFC0AF0B1FCD0E7057D8289EB1C9A42CD
S3150000098C92D3ADB2294680680EF0C1FC0235A3683D
S3150000099C595D0AF007FEC0E7057D8289AB1C9A42B9
S315000009AC82D3ADB2294680680EF0B1FCA289E91C4F
S315000009BC8A42064605F10203FFF476AFA068C45CD2
S315000009CC8B1C9A4207D30EF0A2FC024621463046F7
S315000009DC0AF050FEA1E74FF6FF72F7E7017D828918
S315000009EC8B1C9A42FFF460AF80680EF090FC0AF004
S315000009FCDBFC92E7002058E708B5C37B2BB9C37C18
S31500000A0C012B0AD003D3022B0AD0812008BDFFF795
S31500000A1C91FE0028F9D00020F8E7FFF77BFEF8E7F7
S31500000A2CFFF795FEF5E7F8B5C37B044633BBC57CEB
S31500000A3C25BB037D8289591C8A4221D39EB2711C27
S31500000A4C881C82421CD3A068C75C0EF060FCF31CA9
S31500000A5CB4F80CC05A1C944522BFA268D25C331D54
S31500000A6C014603F1010038BF2A4684452ABFA06817
S31500000A7C0023C35C3846FFF719FE18B98120F8BD70
S31500000A8C8020FCE70020FAE710B5437D012B0446D5
S31500000A9C0CD10368028A598858790DF067F928B188
S31500000AAC23685B88032B16D0C32015E0637D002BCF
S31500000ABCFAD12368228A598858790DF04EF9002804
S31500000ACCF2D023685B88062B2AD00FD8032B1DD0B7
S31500000ADC03D8002BE8D1812010BD042B1BD0052B8D
S31500000AECE2D12046BDE81040FFF7CABEB3F5007F41
S31500000AFCF1D006D8082BD7D12046BDE81040FFF719
S31500000B0C92BFA3F20343012BE5D9CDE72046BDE8FE
S31500000B1C1040FFF723BE2046BDE81040FFF73ABE53
S31500000B2C2046BDE81040FFF767BF01207047012043
S31500000B3C704701207047B5207047704700207047FA
S31500000B4C0020704700207047002070470020704737
S31500000B5C0020704700207047012070470120704725
S31500000B6CB520704700207047002070470020704762
S31500000B7C00207047704700207047B5207047002052
S31500000B8C7047704770470020704784207047704745
S31500000B9C0020704770477047704770477047704722
S31500000BAC70470020704770470020704770477047A9
S31500000BBC0020704770477047704770470120704798
S31500000BCC00207047034B1B681878012808BF0220C9
S31500000BDC704700BFA02300200020704770470020FC
S31500000BEC7047002070470020704700207047002097
S31500000BFC7047002070470020704700207047002087
S31500000C0C70477047B520704700207047002070472A
S31500000C1C0020704770477047704770477047002038
S31500000C2C7047B52070477047704770470020704773
S31500000C3C7047704770477047094A0023FF211370AD
S31500000C4C82F8783082F8653082F8773082F879301D
S31500000C5C82F87A1082F87B30024A1360704700BF24
S31500000C6C9F2E0020C83400202DE9F0470D468F68D2
S31500000C7C0A683A490446202003F053F86B68ABB96E
S31500000C8C3749202003F04DF820200AF083FFEA684C
S31500000C9C1AB13449202003F044F83349202003F0DC
S31500000CAC55F82020BDE8F0470AF074BF002CEBD0B5
S31500000CBCEB681BB12D49202003F033F8DFF8D88000
S31500000CCCDFF8D890DFF8D8A0013F002617F8014FBF
S31500000CDC24B92549202003F039F8D5E72B691BB137
S31500000CEC4146202003F01DF8752C24D0762C24D0F8
S31500000CFC772C24D0732C24D0722C24D0712C24D095
S31500000D0C622C24D06E2C24D02A2C24D01849194BB2
S31500000D1C212C08BF1946202003F003F8212CD5D02E
S31500000D2C2B692BB153F826201349202002F0F9FF2A
S31500000D3C0136F6B2CAE74946EDE75146EBE70F49ED
S31500000D4CE9E70F49E7E70F49E5E70F49E3E70F49FD
S31500000D5CE1E70F49DFE70F49DDE700BF4BAD0300C5
S31500000D6C745503000E3803008F370300FE3703005B
S31500000D7CE0370300E337030008380300A737030006
S31500000D8CB3370300BD370300C8370300D33703005E
S31500000D9C73550300DD37030094CC03009C37030026
S31500000DAC90370300F0B5214A92F87B30184452FA7A
S31500000DBC80F01F4B90F865C090F866501F78A5EB35
S31500000DCC0C050026EDB23046F4B2A54225D90CEB43
S31500000DDC060313445B7811B10CB92D2B17D0782B65
S31500000DEC1FD0582B05D108B137240AE0013C012C41
S31500000DFC14D9602B17D8402BF6D83A2B34BF302495
S31500000E0C00241B1BDBB29F4203D900FB07300136C3
S31500000E1CDAE7052382F879300020F0BD1027002090
S31500000E2CF5E70028E2D05724EBE700BF9F2E002001
S31500000E3C7C1F0020FFF700BF034B93F8770093F855
S31500000E4C7B30C01AC0B270479F2E00200021FFF7DE
S31500000E5CA9BF000010B50A4B93F87B20024453FA45
S31500000E6C82F292F8652013445C78A4F12D03594262
S31500000E7C5941FFF797FF2D2C08BF404210BD00BF0C
S31500000E8C9F2E002030B50C4A92F87B300344C043A9
S31500000E9CDBB2C00F39B1D51895F8664095F8655098
S31500000EAC641B241A0C7042FA83F393F865301844C9
S31500000EBC024B184430BD00BF9F2E0020A02E0020F0
S31500000ECC2DE9F3410F460DF1070115461C46FFF7B8
S31500000EDCD9FF9DF80730AB4288BF8DF80750804686
S31500000EEC9DF807600CB1AC1BE4B2224600213846D3
S31500000EFC32F0E9FB32464146381932F0CBFB30462C
S31500000F0C02B0BDE8F08138B508220C460123FFF784
S31500000F1CD7FF04F10803621E043413F8011D12F8FE
S31500000F2C015F1D70A3421170F7D138BD38B501466B
S31500000F3C05460120FFF798FED5E901436CB91C461E
S31500000F4C084D236863B12946202002F0EAFE2146AB
S31500000F5C0020FFF789FE1434F3E71B786E2BEFD0D5
S31500000F6C38BD00BF94CC030008B50449202002F01C
S31500000F7CD8FE2020BDE808400AF00CBE503703000E
S31500000F8C38B5FFF7F1FF064D0024611914346319C7
S31500000F9C53F8143C03B938BD0020FFF765FEF4E79F
S31500000FAC5C4903002DE9F84F1F4B204D53F82020C8
S31500000FBC1F49202002F0B5FE2B681BB9BDE8F84F7F
S31500000FCCFFF7DEBF1B4FDFF874A0FFF7CDFF00263F
S31500000FDCB94697F87B30F4B2013B9C4204DB286897
S31500000FECBDE8F84FFFF7A2BF47FA86F34C4493F8D7
S31500000FFC65800023C84494F8662094F86510521A4C
S3150000100C03F1010BD2B2DBB2934205D30A4920207D
S3150000101C02F087FE0136DCE7434451465A7820201D
S3150000102C02F07FFE5B46E6E7541B0020C834002026
S3150000103C4B3703009F2E002095CC030000D00300F5
S3150000104C2DE9F74F884C94F87730002B00F0A280EE
S3150000105C864B1B7813F0010F04F101071FD00025F6
S3150000106C834E14E06319202093F8662093F86530BC
S3150000107CD21A44FA85F3D2B293F8651039440AF0C1
S3150000108C84FD3146202002F04CFE0135EDB294F879
S3150000109C7730AB42E6D87749202002F042FE94F82E
S315000010AC77300193DFF8D8E1734B002671461EF8B2
S315000010BC012B91F801C04FF00008ACEB020C07EBCA
S315000010CC020A5FFA8CFC45461868002852D0013893
S315000010DCD14619E02AB9002D4AD04FF00108143335
S315000010ECF2E719F8011BA1F1410BBBF1190F98BFDF
S315000010FC2031A2F1410B98BFC9B2BBF1190F9CBFAD
S3150000110C2032D2B28A42EAD1A9EB0A01614510F823
S3150000111C012FDFD1002ADED11D46584B1D6094F8F5
S3150000112C7B30013384F87B30D5E901230136F6B2E6
S3150000113C002A35D01B786E2B31D03F2B23D04FF0A5
S3150000114C0009C8464FF0070B042394F87710AA68D9
S3150000115CB14212F808702BD8AFB1904498F8013010
S3150000116C2A2B10D0212F1CBF032384F879300AE0D8
S3150000117C1D46B4E7B8F1000F01D1002DCDD10223E5
S3150000118C84F87930002594F87900002869D16868CC
S3150000119C0DF0B8FD03B0BDE8F04FFFF74DBD13469B
S315000011AC019AB24282D8032284F879201D46EAE7D6
S315000011BC732F09D8712F0BD2212F1FD0622F3CD041
S315000011CC002F4BD1032246E0A7F17502022A45D81F
S315000011DC752F29D0762F2AD0732F2BD0722F47F646
S315000011ECFF7A18BF4FF0FF3A012148460193FFF7EB
S315000011FCD9FD5045019B01D984F87930AA6842443F
S3150000120C52782A2A94F879201CBF08F101085FFA53
S3150000121C88F8002AB7D1212F1FBF013609F1010921
S3150000122CF6B25FFA89F990E74FF0FF0ADCE74FF662
S3150000123CFF7AD9E74FF07F0AD6E794F87B204A4429
S3150000124C54FA82F292F8652022445278222AD5D09A
S3150000125C7B2AD3D0052284F87920CFE784F879B09D
S3150000126CCCE7FFF79FFE95E79F2E00205E2F002010
S3150000127C95CC03008D3703005C490300C83400206D
S3150000128C042F00202DE9F3415E4C5F4F06460D46B8
S3150000129C4FF0000866B90DF1070128460AF06EFCFE
S315000012AC78B1262800F0A980012384F879304BE028
S315000012BC002D00F0A28016F8013B8DF80730013D99
S315000012CCEDB23A789DF807303B700D2A01D10A2B06
S315000012DCE0D00D2B0CD0A3F10A02514251412278D9
S315000012EC8846042AD6D8DFE802F0051D263C3100D4
S315000012FC0121F4E721B1FFF7A3FE4FF00108C9E77E
S3150000130C202B63D0222B07D10223237094F878204C
S3150000131C642A5DD10623C8E77B2B01D10323F4E7AE
S3150000132C0123F2E709B9202BF0D194F87730112B71
S3150000133C3FD10323B9E7222BF7D00029E6D00523AA
S3150000134C84F879304FF0010804232370B8F1000FAC
S3150000135CA0D094F8790008B1FFF724FEFFF76CFCD7
S3150000136C98E77D2B94F87A0003D1FF28DDD005236E
S3150000137C9BE7602B13D8402B13D8392B8CBF00223C
S3150000138C30229A1AD2B20F2A10D8FF280BD002EBB1
S3150000139C0012FF238DF8072084F87A30B6E757221F
S315000013ACEFE73722EDE784F87A2073E7202BDED1BE
S315000013BC70E70133DBB284F87730234494F8782055
S315000013CC83F8652000232370002994D1884661E7B1
S315000013DC2378012B09D19DF80730A3F14101192976
S315000013EC9CBF2033DBB28DF80730A3189DF807108D
S315000013FC5970013284F878204CE7404602B0BDE8BB
S3150000140CF08100BF9F2E0020BA2F002049BA89B266
S3150000141C4840C0F303114140080380B24840C3B2B0
S3150000142C80EA4310704712F095BC000038B5A0F165
S3150000143C430305460A2B31D8DFE803F0060A0A12E5
S3150000144C1230303030301100BDE838402BF042B845
S3150000145C2BF008F820B12BF03DF80028FBD138BD55
S3150000146C114C20780028FAD10123443D23700BF04F
S3150000147C13F8032D0DD8DFE805F00606090240F631
S3150000148C010028F06FFD00232370E8E740F6020008
S3150000149CF7E77A21054801F029FAF4E78C2103488D
S315000014ACBDE8384001F022BABE2F00208338030075
S315000014BC7047704770477047704770477047704762
S315000014CC70477047704770477047002070477047E9
S315000014DC7047002070477047704700207047002007
S315000014EC7047704770477047704770477047704732
S315000014FC704700002DE9F047204DDFF8A090DFF88B
S3150000150CA0A000245FFA84F8404613F03DF9FF28AA
S3150000151C06460CD122461A49287802F017FC287880
S3150000152C01340AF037FB152CECD1BDE8F087154BCE
S3150000153C59F82420144947B213EA270338BF5346F7
S3150000154C287802F003FC002FE9DA14B1B8F1030F86
S3150000155C08D10E4B0E49287816F0010F18BF194604
S3150000156C02F0F4FB0A2CDAD10A4B0B49287816F058
S3150000157C010F18BF194602F0E9FBD0E7C81F00207F
S3150000158C8D3903008F370300B5390300503903003A
S3150000159C663903007839030082390300FC380300EE
S315000015AC9ACA030082B2074B42B11A80000C064B52
S315000015BC0ABF4FF6CE2218801A8070474BF6EF62A0
S315000015CCF3E700BF3E1F0020401F0020094B188880
S315000015DC020448BF80F0620042001A80064A138853
S315000015EC190444BF83F4805383F00B035900118014
S315000015FC584070473E1F0020401F0020034B1870B8
S3150000160C034B1970034B00221A707047802E002072
S3150000161C7F2E0020B52F00202DE9F04F214E337878
S3150000162C85B007468846002B39D04FF6FB73984297
S3150000163C35D81D4D1D4B2C784FF0000B9A46327841
S3150000164C18785FFA8BF94A4511D9484402A9C0B2F9
S3150000165C01931DF081FD082241460DEB020031F08D
S3150000166CFFFF0BF1010B019B0028E8D14C462B78B0
S3150000167CA34207D1631C3278DBB29A422B7004BFAB
S3150000168C00232B709AF800301C44E4B241462046E5
S3150000169C1DF0A4FE18B9394620461DF02BFD05B0E9
S315000016ACBDE8F08F7F2E0020B52F0020802E002065
S315000016BC024B187800F07F00704700BF2E300020D8
S315000016CC034B18780130C0B2187000F07F007047D9
S315000016DC2E3000201FB5030A8DF80E30032300931D
S315000016EC03AB8DF80D0000F0C5F905B05DF804FBF1
S315000016FC1FB5030A8DF80F1004218DF80E300091DA
S3150000170C03AB8DF80D0000F0B5F905B05DF804FBE0
S3150000171CF0B589B01768BDF838509DF83C60CDF827
S3150000172C09708DF812505768DDF840C0BDF844407A
S3150000173CCDF80D702D0A012E8DF811308DF8135041
S3150000174C8DF8146016D0032E1BD1DCF80030CDF8C2
S3150000175C1530DCF80430CDF819309DF848308DF88A
S3150000176C1D3016230093BDF84C2002AB00F082F915
S3150000177C09B0F0BD8DF81540240A8DF816400F23DC
S3150000178CF0E70120F4E71FB50C46194602238DF845
S3150000179C0D2000930A4603AB0146204600F06AF979
S315000017AC04B010BD10B586B01C460B68CDF80D30D4
S315000017BC4B68CDF811300A238DF81520009322467C
S315000017CC03AB342100F056F906B010BD30B585B028
S315000017DC0024ADF80A20021D92B2012A1D46ADF86E
S315000017EC0840ADF80610ADF8044003D94FF6FF7269
S315000017FC904207D1064A2B46127801A91BF0E4FC4D
S3150000180C05B030BD014601AA20461BF0A3FDF7E743
S3150000181CCF1F00202DE9F04F834689B00C461F469A
S3150000182C90463AB3104614F05DF9C0F3470A1FB35D
S3150000183C384614F057F9C0F34709FFF741FF4FEA52
S3150000184C1B238DF818008DF81B400022240A062154
S3150000185C06A88DF819B08DF81A308DF81C408DF845
S3150000186C1DA014F03BFAADF8160038B9182009B0D3
S3150000187CBDE8F08F9246DAE7B946DEE74FEA4A0151
S3150000188CCBB2DC1DE4B204EB4901C9B20DF1160072
S3150000189C019314F01AFC0028E8D10646F2B29245E0
S315000018ACBDF8163015D8019906314A4601F0FE01ED
S315000018BC184614F07FFC0026F5B2A945BDF8168033
S315000018CC2AD84346BDF8482006215846FFF77EFF26
S315000018DCCDE75500EDB2294640460393029214F02B
S315000018EC55FC029A039BD11C4900024601F0FE01ED
S315000018FC184614F05FFC691CBDF816300293C9B289
S3150000190C404614F043FC029BE91D0246C9B2184638
S3150000191C14F050FC0136C1E76D00EDB2294638468D
S3150000192C14F034FC21460246404614F043FC691C74
S3150000193CC9B23846BDF8168014F028FC611C024664
S3150000194CC9B24046023414F035FC0136E4B2B3E7B2
S3150000195CF0B589B00E4602A905460BF07BFD0028B2
S3150000196C00F08180FFF7ACFE8DF8100013F0CEF876
S3150000197C8DF8110013F0CAF83D4A8DF81B50136808
S3150000198CCDF813305368CDF81730BDF808308DF804
S3150000199C1C30000A1B0A8DF812008DF81D3000222F
S315000019AC9DF80D308DF81E300F2104A814F096F911
S315000019BCADF80600002858D000279DF80D30FAB275
S315000019CC934207F1010718D801231A460DF10E01AF
S315000019DC0DF1060014F0BEF900279DF80E30FAB290
S315000019EC934207F1010723D8BDF806303246202171
S315000019FC0020FFF7EBFE09B0F0BD002128460BF0E6
S31500001A0C55FD01238DF805001A460DF10501044616
S31500001A1C0DF1060014F09EF90123240A1A460DF165
S31500001A2C05010DF106008DF8054014F093F9C4E795
S31500001A3C012128460BF03AFD01238DF805001A46C4
S31500001A4C0DF1050104460DF1060014F083F901238E
S31500001A5C240A1A460DF105010DF106008DF8054014
S31500001A6C14F078F9B9E7A320C5E71820C3E700BF3F
S31500001A7C462F00202DE9F0411C460E4617469DF8D0
S31500001A8C18800546FFF71CFE0022207041462046B2
S31500001A9C14F024F9034630B13A4631462846BDE8DF
S31500001AACF041FFF793BE1820BDE8F08108B5FEF7AC
S31500001ABC95FD0FF023FABDE8084006F0D7BE08B531
S31500001ACCFFF75FF80FF042FA07F068F808F07EFAB5
S31500001ADCBDE8084008F074BB08B5FFF753F807F0EB
S31500001AECB1F8BDE8084008F029BEFFF77CB8FFF74F
S31500001AFC80B80020704738B504460D46FFF798F8B5
S31500001B0C29462046BDE838400AF072BDFFF773B887
S31500001B1CFFF77EB84022032101200FF021BF0122DE
S31500001B2C032110460FF01CBF0022032101200FF0E9
S31500001B3C17BF0222032101200FF012BF0122002140
S31500001B4C09200FF00DBF000070B5134C8A00A318C6
S31500001B5C22449B781D09062D98BF104E03F00F03E7
S31500001B6C94BF755DFF25062B05719ABF0C4DEB5C7A
S31500001B7CFF234371FF3B18BF01238371D37014F805
S31500001B8C2130084C4370537883700146204604F08C
S31500001B9C05FD0123A36070BD702E00208393030006
S31500001BAC7C930300002000407FB522492248002286
S31500001BBCFF23CDE901228DF8093003784C6C8D6B2F
S31500001BCC03922C40E407DBB228D5022B26D88C6C6A
S31500001BDC1A4901EB8301A5B2CE78194906B326043E
S31500001BEC1ED521F813201749012202FA03F30A78AD
S31500001BFC1343154A0B701378CBB100231478DC40D1
S31500001C0CE407D9B20FD501701078012404FA03F356
S31500001C1C4340DBB201A81370FFF796FF04B070BD0A
S31500001C2C21F81350DFE70133032BE7D1F6E7032343
S31500001C3C0370F3E7002000407C2E0020702E00205D
S31500001C4C582A00207E2E00207D2E002007B5012369
S31500001C5C082269460020FFF733F94FF6FD716846F6
S31500001C6C00F0CAF8FF28024606D1064901200DF0FD
S31500001C7CF3FF03B05DF804FB034901200DF0ECFF04
S31500001C8CF7E700BF8A930300A693030007B5012369
S31500001C9C082269460020FFF713F9684600F010F990
S31500001CAC30B9044901200DF0D7FF03B05DF804FBF1
S31500001CBC0149F7E7209403002E94030007B501238E
S31500001CCC082269460020FFF7FBF8684600F076F814
S31500001CDCFF28024606D1064901200DF0BDFF03B0D0
S31500001CEC5DF804FB034901200DF0B6FFF7E700BFD2
S31500001CFCC3930300D39303002DE9F7431C49DFF884
S31500001D0C7880DFF8789004200DF0A6FF0026344684
S31500001D1C4FF6FF770BF0E0FCF5B2A8420AD80BF0B1
S31500001D2CDBFC22460346134904200DF095FF03B055
S31500001D3CBDE8F08328461DF027FAB842034615D0B5
S31500001D4C2A46414604200DF0A3FF28466946013475
S31500001D5C1DF002FA0420E4B20DF06AFF10B16846D9
S31500001D6C0DF0ECFE494604200DF076FF0136D1E766
S31500001D7CF093030009940300FE9303008F370300CE
S31500001D8C37B50020FFF762F804460220FFF75EF82D
S31500001D9CE4B2054669460120FFF7B5F8AAB26946D2
S31500001DAC204600F05BF822460346034904200DF05A
S31500001DBC53FF03B030BD00BF43940300F7B506468E
S31500001DCC98B100254FF6FF77ECB220461DF0DCF9F2
S31500001DDCB84209D0694620461DF0BEF9082269466C
S31500001DEC304631F03DFC08B11DB1FF24204603B04E
S31500001DFCF0BD0125E8E700002DE9F34106460F4644
S31500001E0C00254FF6FF78ECB220461DF0BDF9404593
S31500001E1C11D0694620461DF09FF9082269463046C6
S31500001E2C31F01EFC58B125B1FF24204602B0BDE8A6
S31500001E3CF0810125E7E7314620461DF0CFFA4FF633
S31500001E4CFD739F4203D0394620461DF053F9024AD2
S31500001E5C535D01335355E8E7812E00200128F8B570
S31500001E6C0546174612D80B4E325C8AB91DF0B6FAE7
S31500001E7C044638B94FF6FD739F4203D039462846BF
S31500001E8C1DF038F9012373552046F8BD6A24FBE78B
S31500001E9C7624F9E7812E0020012810B50CD8074BC3
S31500001EAC1A5C0AB1013A1A541C5C1CB94FF6FF7144
S31500001EBC1DF020F9002000E06A2010BD812E0020C4
S31500001ECC08B5FFF77BFFBDE80840FFF7E5BF01202B
S31500001EDC704701207047012070470000014B00221B
S31500001EEC1A707047E035002008B5134B00221A70A3
S31500001EFC124B197811B11A70FEF74DFE104B1A7869
S31500001F0C032A0ED8DFE802F0020E100201224FF46B
S31500001F1C7A710C481A7013F0C1F928F063F80A4B61
S31500001F2C188008BD02221A70064B00221A70BDE8F2
S31500001F3C0840FEF731BE00BFE0350020551F0020DB
S31500001F4C942E0020F03500207E2A002038B528F08B
S31500001F5C49F8134B134A1C8800231370124A13704A
S31500001F6C124B1A78041B012AA4B203D001221A7050
S31500001F7CFEF710FEB4F57A7F0D4D09D32978B1FA28
S31500001F8C81F149092046FEF755FB03232B7038BD1A
S31500001F9C2046FEF7DAFB074813F074F9F5E700BFA5
S31500001FAC7E2A0020E8350020F0350020551F002041
S31500001FBC942E0020E035002008B5134B00221A7031
S31500001FCC124B197811B11A70FEF7E8FD104B1A78FE
S31500001FDC032A0ED8DFE802F0020E100201224FF49B
S31500001FEC7A710C481A7013F059F927F0FBFF0A4B5B
S31500001FFC188008BD02221A70FA21064813F04EF911
S3150000200CBDE80840FEF7CBBDE0350020561F00208A
S3150000201C962E0020D0350020802A002038B527F0D7
S3150000202CE1FF134B134A1C8800231370124A1370DA
S3150000203C124B1A78041B012AA4B203D001221A707F
S3150000204CFEF7ABFDB4F57A7F0D4D09D32978B1FABD
S3150000205C81F149092046FEF73FFB03232B7038BD5F
S3150000206C2046FEF713FB074813F00CF9F5E700BF03
S3150000207C802A0020D8350020D0350020561F00209D
S3150000208C962E0020E03500200E280BD10C4B012992
S3150000209C1B7803D123B90B4813F0F4B8002BFAD1F3
S315000020AC0948F9E70F280AD1084B01291B7802D1F8
S315000020BC1BB90748F0E7002BFBD10648ECE7704745
S315000020CC932E0020F0350020E8350020952E0020B8
S315000020DCD0350020D83500202DE9F74FDFF87C806D
S315000020EC07460D461446994603F10C0A4FF0010BB0
S315000020FC15B903B0BDE8F08F102D2E46164A28BF31
S3150000210C1026F3B2494651F8040B42F8040B51451C
S3150000211CF9D101939AF800101170104888F80F4005
S3150000212C002288F80E2088F800B001341DF0F4F96E
S3150000213C0B48019BE4B23A4612F8011B10F801CF8A
S3150000214C81EA0C0102F8011CD11BC9B29942F3D3E6
S3150000215CAD1BADB21746CBE7622F0020612F0020D6
S3150000216C602F00202DE9F04F85B016460293BDF87E
S3150000217C38900F9B354A01930D468046034600F175
S3150000218C0C0153F8040B42F8040B8B42F9D1304C7A
S3150000219C1B7813704923237020464FEA1923A37327
S315000021AC84F80F901DF0B8F9237883EA1623237070
S315000021BC63784FF0020A734063705246A3460027B9
S315000021CC1FE0C2F11001F31B89B29BB28B42A2EB4A
S315000021DC050028BF0B46039029460398A1EB050C76
S315000021EC1FFA8CFC08189C45C0B21AD31A44D2B2FA
S315000021FC1F44102A1D44BFB203D120461DF08CF992
S3150000220C0022B742DDD312B158461DF085F9BAF15A
S3150000221C010F4FF00002029D4E460BD04FF0010A03
S3150000222CCDE711F801CB1BF800E08CEA0E0C0BF88D
S3150000223C00C0D2E7064B01991B6801980B60434618
S3150000224C042105B0BDE8F04FFFF746BF622F002012
S3150000225C612F0020F7B5099FBDF82040CDE9004756
S3150000226C06461D46FFF77EFF2CB13346012221465A
S3150000227C2846FFF731FF002003B0F0BD2DE9F743E8
S3150000228CBDF828700F4C1E460546884691460346F7
S3150000229C394630460122FFF71FFF33464A46414670
S315000022AC2846CDE90074FFF75DFF042221460B9802
S315000022BC31F0D6F9002814BF7E20002003B0BDE80B
S315000022CCF08300BF992E002073B51C46044D8B1865
S315000022DC1E592E60CDE90045FFF7D0FF02B070BD48
S315000022EC0730002000207047002070470020704700
S315000022FC70477047F7B50A4E0A4F0B4D002456F837
S3150000230C243003B93B6835F814200092074922465D
S3150000231C012001340DF0A0FC292CF0D103B0F0BD46
S3150000232C581E00200C1F00205A370020589403001A
S3150000233C08B5FFF7DFFFBDE8084000F0F1B8000074
S3150000234C07B50020FEF782FDC2B2282A0DD8084B2D
S3150000235C53F822300BB9074B1B68074931F812109A
S3150000236C0091012005490DF077FC03B05DF804FBE4
S3150000237C581E00200C1F00205A37002058940300CA
S3150000238CFFF7B8BF7047000038B50020FEF75EFDBA
S3150000239C04460120FEF75AFD0549054601200DF0BD
S315000023AC5BFCA9B2E0B2BDE8384000F0D1B800BF82
S315000023BC63940300F7B50A4E0A4F0B4D002456F8EA
S315000023CC243003B93B6835F814200092074922469D
S315000023DC012001340DF040FC292CF0D103B0F0BDE6
S315000023EC581E00200C1F00200837002058940300AC
S315000023FC73B502AB03E906000446019D12F008F81A
S3150000240C0646204612F014F89DF800008EB1202CDA
S3150000241C0FD82B78012B37D803EB431339492344B8
S3150000242C4FF6FF7531F81320AA4202D0013221F87B
S3150000243C1320354B354933F8146031F814504FF6E8
S3150000244CFF7296421CBF721C23F8142004F0FD0286
S3150000245C092A31D19A8A898A02448A42B4BF9A825D
S3150000246C998233F81430AB4204D3AE4202D22046E2
S3150000247CFEF796FB264B0025EA5CA24228D00135D6
S3150000248C112DF9D102B070BD022BD2D11D4B33F8F0
S3150000249C14204FF6FF718A421CBF013223F8142018
S315000024AC04F121024FF6FF7533F81210A9421CBF36
S315000024BC013123F81210BCE71D2CD2D15A8F1118FA
S315000024CCA942BDBF02F1FF3212185A875D87C8E7D1
S315000024DC2AF083FA0F4B1B788342044603D8DD217E
S315000024EC0D4800F003FA04EB04140C4A2C444FF686
S315000024FCFF7132F814308B42C4D0013322F81430F9
S3150000250CC0E700BFAC3700205A3700200837002040
S3150000251CCF970300991F00204B970300E636002047
S3150000252C52220021014831F0CEB800BF5A370020A4
S3150000253C5222FF21014831F0C6B800BF08370020EF
S3150000254C08B5FFF7EDFFBDE80840FFF7F1BF000047
S3150000255C014B23F8101070470837002010B5104CAB
S3150000256C1049A161032321660F491022C4E90433E3
S3150000257C0E4BE361C4E9191200230D49A362E01D59
S3150000258C6362E3622367E3666367226231F0ADF848
S3150000259C0849204631F0A9F82023A37110BD00BFCD
S315000025AC00340020E09703004F2E00205F2E002001
S315000025BCE9970300ED9703002DE9F84F1F4B1646DC
S315000025CC1A7881468A4698460AB9FFF7C7FF182734
S315000025DC07FB09873D6FD7F86CB05D452BD9BC6EF0
S315000025EC796E641BB44228BF3446294450462246B1
S315000025FC31F045F8BB6E2544A244361BAB4208BFEE
S3150000260C0025ABEB050B5E4528BF5E4656B118237D
S3150000261C03FB09833246596E5046294431F02FF894
S3150000262C3444354424B1182303FB0988C8F8705088
S3150000263C2046BDE8F88F0024E3E700BF00340020F5
S3150000264CF8B504460E46174604F0B5FC3A46054660
S3150000265C31462046FFF7B0FF0446284604F0B1FC8D
S3150000266C2046F8BD2DE9F843124D1E462B788146BF
S3150000267C884617460BB9FFF771FF04F09CFC696995
S3150000268C00244FF0180C0CFB04535A6E2AB101347B
S3150000269CA142F8DC4FF0FF3407E0A142FADDC3E9B2
S315000026AC18989F661A67DA665E6704F08AFC2046FD
S315000026BCBDE8F88300340020FFF750BF012270B547
S315000026CC1146042004F0B2FA1A4B1B4D1A681B482B
S315000026DC42F001021A60DA684FF0604442F08072F0
S315000026ECDA60174BC4F8B03F00260223C4F8006E1C
S315000026FCC4F8806EC5F8F03004F094F900F5D520D6
S3150000270C104B114A00F2FC40B0FBF3F00F4B0138B2
S3150000271C2861C4F8406E1A600D4BC4F8803E4FF425
S3150000272C8073C5F80433D4F8003E43F48073C4F8C0
S3150000273C003E70BDF0ED00E0000004E006000E0067
S3150000274C55CEACC5F8590D00FF030040001000E053
S3150000275C0D00010010B50121114804F017F8114BBA
S3150000276C01241C60002005F041F9234604220221B5
S3150000277C052005F08DF9204610F05AF9FFF79EFF5B
S3150000278C10F05AF9084B1C70FFF796FF23464022AF
S3150000279C06490748FFF766FF064B1860C00F10BDC9
S315000027AC00350A0010881442202F0020C72F002065
S315000027BCF49703007C1D0020024B1868003018BFEC
S315000027CC01207047F0ED00E0054A4170D1230370FB
S315000027DC1378C370090A8170591C11700420704754
S315000027EC0C3000202DE9F74F0E78042E83460F4649
S315000027FC61D927F0F7FBDFF8C480751DEDB2824670
S3150000280C4FF6FF710024C146D8F800305BB1A542E3
S3150000281C09D9019127F0E6FBA0EB0A0080B2B0F5CE
S3150000282CFA7F019907D9281B18BF012004233B7096
S3150000283C03B0BDE8F08FB4B3012C37D0EA1E631C8D
S3150000284C9442DBB21CD1CCB24FF06042D2F8800E6F
S3150000285CC00713D51046D9F80CC04CF0807CC9F8CB
S3150000286C0CC0D0F800CE4CF4807CC0F800CED0F86A
S3150000287C20C0BCF1000FEED082F820401C46C3E706
S3150000288CAA1E944202D1C1F30724DDE76A1E9442C4
S3150000289C0FD05C44019314F8024C2046FEF7B6FDAB
S315000028AC019B0146D0E75B240123CDE73446022386
S315000028BCCAE75D24C8E70020B8E700BFF0ED00E0EA
S315000028CC00B5084B91B0402269461868FFF7B8FE70
S315000028DC20B1C2B26946122029F060FF11B05DF832
S315000028EC04FB00BF7C1D002042DE704738B5044651
S315000028FC0D4611F03FFA00F0D3FD04F054FB2946C7
S3150000290C204629F017FF2B4622460549012009F0DF
S3150000291C47F929462046BDE83840FFF7E5BF00BF1A
S3150000292C049803006D4B2DE9F0416D4C5A68A26575
S3150000293C5A6AE2656B4AD2F800122166D2F8042272
S3150000294C62669A6AA266DA6AE2661A6B22675A6B42
S3150000295C6267DB6BA26BA367D4E90F5312F0040F0B
S3150000296C18BF1D4627F022FB0022854203466065F0
S3150000297C22655CD35C4A954259D8AA696264E969B6
S3150000298CA164B4F85810C1F30801062953D157496C
S3150000299C8A4250D356498A424DD211884DF642622C
S315000029AC914248D16268C4F89420A268C4F8982071
S315000029BC40F201704F4A5049934238BF13460A46BB
S315000029CC8B423BD3D31AE3640023C4E91F33C4E917
S315000029DC2133C4E92333484E444FDFF814C1AE42C9
S315000029EC32D8D4E91FC7D4E92165D4E923124FF0B4
S315000029FC000E013BDBB2FF2B41D1BEF1000F05D01F
S31500002A0CC4E91FC7C4E92165C4E92312B4F85830D8
S31500002A1CC3F30803DA1E0F2A55D8DFE802F03A5B37
S31500002A2C474A54545454545154545454543E00220A
S31500002A3CC4E911221D464FF42060BBE71E68B6F1AF
S31500002A4CCD3FBFD10433BBE756F8042DBA42C6D3EB
S31500002A5C6245C4D2D107C2D5002104EB010EDEF8C3
S31500002A6C7CE09645BBD004311829F6D10BB9052369
S31500002A7C01E0013BDBB204EB8301CA67AFE7E0463A
S31500002A8C4FF0010EBC4637462E460D4611464246C1
S31500002A9CAFE740F60120BDE8F081184BDB6913F077
S31500002AAC020F40F2025318BF1846F4E740F6032013
S31500002ABCF1E740F60423B0F5206F08BF1846EAE7A5
S31500002ACC40F60520E7E7013B40F60722412B98BF6D
S31500002ADC1046E0E740F60220DDE700BF00ED00E01F
S31500002AEC0000002000E100E0001800202403000094
S31500002AFC303703009C0000202018002000200540E1
S31500002B0C0E2804D00F280CBF01200220704700208D
S31500002B1C704700002DE9F04385B04FF48073ADF893
S31500002B2C0C3001F0BFFB01211548DFF85C80DFF8A3
S31500002B3C5C9003F02BFE0121124803F027FE0024C3
S31500002B4C012703AB0122E35C18F8336008EBC303DF
S31500002B5C30465D680023294604F09AFF4946E8B2E0
S31500002B6C01F0B8FBCDE9007701232A462946304609
S31500002B7C04F048FF14B105B0BDE8F0830124E0E78A
S31500002B8C4041050000350A0018980300212C00006E
S31500002B9C08B5FFF7B5FF022816BF024B0020185CDC
S31500002BAC08BD00BF972E002008B5FFF7A9FF022825
S31500002BBC1CBF014B195408BD972E002008B5FFF712
S31500002BCC9FFF022805D0034A135CB3FA83F35B0913
S31500002BDC135408BD972E002008B5FFF791FF022865
S31500002BEC11D00A4A12F8301030234B4302EBC002C4
S31500002BFC07491944536803EBC1039B001868B0FAE4
S31500002C0C80F0400908BD0020FCE700BF18980300BF
S31500002C1C1CA0104270B50446FFF7DEFF00260546E1
S31500002C2C01E000261D462046FFF7D6FFA8420346C4
S31500002C3CF7D10136052EF2D12046FFF7A9FFA8429F
S31500002C4C0BD029462046FFF7AFFF2046FFF7A0FF23
S31500002C5C014620460AF07AFA70BD2046FFF7AEFF11
S31500002C6C2046FFF795FF014620460AF06FFA2046EC
S31500002C7CFFF7A4FFE9E7000010B505F06BF9044671
S31500002C8C05F062F90022012101FA02F3234014D067
S31500002C9C1B4B33F812301B4A062B13D040F207217C
S31500002CAC8B420DD1184919480C68844208D14CF254
S31500002CBC3C334B800B88138012E00132112AE3D18E
S31500002CCC104AF8E7104B58884FF20F01884214D17E
S31500002CDC1988B1F5406F10D211804CF23C325A80F3
S31500002CEC084B1A8840F201739A4201BF084A094BF5
S31500002CFCD2E90001C3E9000110BD4FF4C061EBE756
S31500002D0C289803001C2C00200000002007020FF05E
S31500002D1C94000020F8260020014B1888000A704702
S31500002D2C1C2C0020014B1888704700BF1C2C00205F
S31500002D3C2DE9F04F4D4CA36BD4F850B0D4F840A00D
S31500002D4C5A074FBF0027D4F84CB0D4F85480D4F8A7
S31500002D5C3CA05ABF464FDFF84091DFF84091454AF8
S31500002D6C48BFB84613F0080F434B18BF1A46B7EBCB
S31500002D7C08061CBF7308642187B01FBF01FB0B3309
S31500002D8CB3FBF6F39BB205933C49CDF800804B465A
S31500002D9CCDE9017A08BF0596054600F0D7FFB3B218
S31500002DACCDE900931FFA8BF2059B3549284600F0B6
S31500002DBCCDFFA36B5B070AD49C3E5E4507D1626DC3
S31500002DCC304B9A4203D23049284600F0BFFFBA4531
S31500002DDC01D8C24504D24A462C49284600F0B6FF13
S31500002DEC284608F0D7FE236E0BB9636EBBB3284991
S31500002DFCDFF8AC80DFF8AC90284600F092FF002696
S31500002E0C0127226E07FA06F3134207D058F826203C
S31500002E1C13781BB14946284600F083FF0136202E55
S31500002E2CEFD1DFF87C80DFF87C9000260127626EFC
S31500002E3C07FA06F3134209D008EB8603D3F8802071
S31500002E4C13781BB14946284600F06BFF0136122E4B
S31500002E5CEDD1284607B0BDE8F04F00F071BF0D4923
S31500002E6C284607B0BDE8F04F00F070BF0000002008
S31500002E7C201800203A9B0300339B0300429B03005F
S31500002E8C709B03009C000020A99B0300D59B0300AC
S31500002E9CF39B0300229C03002E9B0300C2B6030087
S31500002EAC389C03004AAD03002DE9F8430446FFF7AE
S31500002EBC39FF40F60123984239D010D840F202531C
S31500002ECC98421DD040F20173984224D040F201532F
S31500002EDC984213D16549204600F038FF22E040F6AF
S31500002EEC032398426CD03DD340F60423984200F05D
S31500002EFC9C8040F60523984200F0B580BDE8F88327
S31500002F0C5B49204600F022FF5A4B5B495A6C20461F
S31500002F1C00F01CFF06E0574A5849D2E92523204603
S31500002F2C00F014FF2046BDE8F84308F033BE514DBF
S31500002F3C5349204600F00AFF95F86C309F0703D5DD
S31500002F4C5049204600F002FF95F86F305E0603D517
S31500002F5C4D49204600F0FAFE95F96F30002BE1DA68
S31500002F6C4A49B8E7434D4A49204600F0EFFE95F82A
S31500002F7C6830980704D06A6C3F49204600F0E6FE9C
S31500002F8C95F96830002B04DA6A6F4249204600F046
S31500002F9CDDFEDFF80C81DFF8189100260127AA6EFA
S31500002FAC07FA06F3134207D058F8262013781BB1FC
S31500002FBC4946204600F0CAFE0136082EEFD1B1E78D
S31500002FCC2C4D3549204600F0C1FE2B496A6C204633
S31500002FDC00F0BCFE95F86930590703D52F492046F9
S31500002FEC00F0B4FE95F96930002B04DA6A6F2949B2
S31500002FFC204600F0ABFE2A4FDFF8B4800826AB6EF5
S3150000300CF340DA0707D557F8262013781BB141464B
S3150000301C204600F09BFE0136102EF0D195F8683054
S3150000302C002B7FF47FAF1F4955E7124D1E491C4FED
S3150000303CDFF87C80204600F089FE6A6C0E4920463B
S3150000304C00F084FE1026AB6EF340DB0707D557F86D
S3150000305C262013781BB14146204600F077FE013638
S3150000306C1A2EF0D15EE711494BE700BFBD9803005D
S3150000307CFA980300000000202A99030043990300E4
S3150000308C5D99030075990300AF990300E29903005B
S3150000309C1E9A0300439A0300679A03007E9A030064
S315000030AC4C980300C49A0300F49A03000D9B03008A
S315000030BC5F9A03002DE9F84F164C174FDFF8608026
S315000030CCDFF860A00646002523785FFA85FB0BB96E
S315000030DCBDE8F88F57F8043B10492246304600F0FD
S315000030EC20FE227804F1010982B9627882B10BF0D4
S315000030FC030103290CBF41465146304600F011FE30
S3150000310C304608F047FD01354C46DDE74C46E8E70E
S3150000311C4146F2E7009D030004000020B49803002A
S3150000312C8D370300E6B9030000F00CB800F00AB8BE
S3150000313C00F008B800F006B800F004B800F002B8C9
S3150000314C00F000B872B61EF0080F09D01EF0040F7E
S3150000315C0DD0DFF850E0AEE8FF1F6FF002000CE078
S3150000316CDFF840E0AEE8FF1F6FF00E0005E0DFF879
S3150000317C34E0AEE8FF1F6FF006006946EFF30982F4
S3150000318C8EE8070086460848084C854501D3A545B8
S3150000319C01D384F30888FFF7C5FB84F3088826F06F
S315000031ACE1FE000004000020000F00202018002083
S315000031BCFFF7C6BF10B501210A4803F0E7FA012153
S315000031CC094803F0E3FA002304220A21022004F042
S315000031DC5FFC0023042209210320BDE8104004F003
S315000031EC57BC00BF4041050000350A00064B03EBF7
S315000031FCC00213F83030516801228A4030215943FD
S3150000320C024B5A50704700BF90A303000CA0004617
S3150000321C064B03EBC00213F83030516801228A408A
S3150000322C30215943024B5A50704700BF90A30300FC
S3150000323C0CA00044074A12F8301002EBC002536887
S3150000324C01229A4030234B4303F1804303F520437C
S3150000325C9A61704790A3030010B10020FFF7C6BF18
S3150000326CFFF7D6BF37B57F2A14BF154600254BF29C
S3150000327C34629142044619D17F2241F2020168461A
S3150000328C0823FFF7EFFF08222649684630F0E8F9D5
S3150000329C30B908237F2241F2F0116846FFF7E2FFAE
S315000032AC6B4603CB2060616003B030BD41F2F01277
S315000032BC914219D11C490A6C496C01381D1F002B0F
S315000032CCF2D0013B9D4200F8012F4FEA1222F6D1B3
S315000032DC033400229A42E7D00132042A04F8011F73
S315000032EC4FEA1121F6D1DFE701F47042B2F5805FA7
S315000032FC0BD1C1F30B0404F17E641A4603FB0541A2
S3150000330C03B0BDE8304030F0BAB901F46042B2F512
S3150000331C005FC9D1C1F30B0404F17E6404F580444B
S3150000332CEBE700BF26A40300B081E00F70B505469D
S3150000333C16461C46DBB14BF23463994210D1082C6D
S3150000334C28BF08247F2241F202012346FFF78AFF99
S3150000335C22460749284630F083F940B941F2F0116C
S3150000336C234632462846BDE87040FFF77BBF70BD4A
S3150000337C26A403002DE9F8431646C20704460F4659
S3150000338C03D5DD212748FFF7B1FAF30703D5DE2174
S3150000339C2448FFF7ABFA04F47043B3F5805F21D1F0
S315000033ACC4F30B0404F17E64731E1F4A2344934238
S315000033BC254603D9E3211B48FFF798FADFF86490FA
S315000033CC05EB0608454522D156B372083946204608
S315000033DC26F04FFD20B340F20F111248BDE8F8431A
S315000033ECFFF784BA04F46043B3F5005F07D1C4F366
S315000033FC0B0404F17E6404F580442546DEE7EA21DD
S3150000340C0848FFF773FA6FF00F050024D6E715F896
S3150000341C013BFF2BD6D0F4214846FFF767FAD1E7DC
S3150000342CBDE8F883ACA30300FF07E00FFFF77CBEF3
S3150000343C1FB501211648174C03F0A8F901221146B5
S3150000344C104603F0F3FB0421072004F06DFD124A2D
S3150000345C1068516801AB03C39068186001238DF89E
S3150000346C04300D238DF80C3001A9032320468DF86A
S3150000347C0D3004F0A0FF094B04220221C3F8802171
S3150000348C61621A60A36A0B43A36204B010BD00BF4D
S3150000349C30253E00002005402EA4030000E100E08C
S315000034AC014804F07CBF00BF00200540A52803D1CD
S315000034BC0021024804F05FBF704700BF00200540A2
S315000034CC024B186800F00100704700BF0020054051
S315000034DC024A9368002BFCD1704700BF00200540C0
S315000034EC00207047002070477047000013B572B675
S315000034FC03F059FD7A4B7B495B698B6000230B7695
S3150000350CE0204B768B764023C87608774877887709
S3150000351CCB77754B8022602481F8202081F821001E
S3150000352C81F8220081F8232083F8002383F80143D5
S3150000353C202483F8024383F8034383F8042383F897
S3150000354C052383F8062383F8072383F8082383F8D7
S3150000355C092383F80A2383F80B2383F80C2383F8B7
S3150000356C0D2383F80E2383F80F2383F8102383F897
S3150000357C112383F8122383F8132383F8142383F877
S3150000358C152383F8162383F8172383F8182383F857
S3150000359C192383F81A2383F81B2383F81C2383F837
S315000035AC1D2383F81E2383F81F2383F8202383F817
S315000035BC212383F8224383F8232383F8242383F8D7
S315000035CC252383F8262383F8272383F8282383F8D7
S315000035DC292383F82A2383F82B2383F82C2383F8B7
S315000035EC2D2383F82E2383F82F2383F8302383F897
S315000035FC312383F83203CB6823F4E0631B041B0CE2
S3150000360C43F0BF6343F40133CB604B6943F400735F
S3150000361C4B614B6943F010034B614FF4E0234B6253
S3150000362C06F018F8FFF728FBEFF308832F4A043B44
S3150000363C4FF0CD3193421DD22D4A2E4892B2002125
S3150000364C30F041F862B62C4B01225A642B4BDB6CE2
S3150000365C1B0E12D12A492B484AF6E8520A60026818
S3150000366C42F0040202600B60274A136843F40053CD
S3150000367C136004E01960043BDCE7012BF4D0234A09
S3150000368C136A23F4441343F488131362A2F580429D
S3150000369C0124136843F48073136002F546522432F6
S315000036AC136843F4F8431360194B1C6105F016FFBD
S315000036BC01F090FA002368460093ADF804308DF8BB
S315000036CC034003F031FF00F0E9F826F09DFC00F012
S315000036DCF3F82AF0FBF80F4806F094FB02B010BD85
S315000036EC0000000000ED00E000E100E0C00E00204C
S315000036FCE40D0000A000002000000E40B081E00F99
S3150000370C90310E4098310E4064310E4000400E4010
S3150000371C00300E4058AC030040F2016026F022BC8B
S3150000372CFEF7E6BD08B500210B20FEF7DFFDBDE870
S3150000373C0840FEF7DEBD08B1FDF77CBAFDF779BA95
S3150000374C032000F0A7B9000008B5FFF7E5FA044B13
S3150000375C0B289ABF00B203EB8000184608BD00BFC9
S3150000376C82A5030008B5FFF7DDFA044BC0F30F2260
S3150000377CC0B253F8223003EB800008BD4CA5030001
S3150000378C10B5FFF7C9FA0446FFF7CCFAC0B228B950
S3150000379C012C24D164F07F04E4B216E0072CF9D88E
S315000037AC01A353F824F000BFD7370000A13700005F
S315000037BCD5370000DB370000DB370000DF370000B1
S315000037CCE3370000E73700000924204610BD022429
S315000037DCFBE70324F9E70B24F7E70624F5E7044691
S315000037ECF3E700BF38B50D46044688BB284B4A1E86
S315000037FC186050425041013D08F054FC032D46D848
S3150000380CDFE805F002131E2001210846FDF713FA26
S3150000381CFFF756FE1F4B187010B1A520FFF746FE9A
S3150000382C0120BDE8384008F03DBC02210120FDF71F
S3150000383C02FAFFF745FE50B3BDE83840FFF748BE25
S3150000384C0421F3E705210120BDE83840FDF7F3B963
S3150000385C104B1B781BB101210F4804F08CFD631E25
S3150000386C58425841013C08F033FC032C0FD8DFE8D2
S3150000387C04F002080A0C012008F02AFC01210020A1
S3150000388CE2E70221FBE70421F9E70521F7E738BD5A
S3150000389C442A00202B30002000200540044AD2F890
S315000038AC1C341B0C1B04C2F82434024A13607047E8
S315000038BC00A000409823002008B505F0C1FF18B100
S315000038CC92210448FFF712F803490448BDE8084062
S315000038DC06F06AB8B2A50300781B002098240020D5
S315000038EC134A1449D2F82834D2F81C241340124A2D
S315000038FC9BB21360D1F80001400502D5086840055B
S3150000390C06D4D1F80001400305D50968480302D551
S3150000391C43F480331360074BD3F80011490006D5E6
S3150000392C1B685B0042BF136843F400331360704797
S3150000393C00A0004000E100E0442A0020012838B530
S3150000394C0AD0831E012B26D9042826D0052801D19E
S3150000395C03F05CFD002400E0044603F01DFB01218E
S3150000396C0546204605F09CFF284603F019FB03F09C
S3150000397C0FFB03F01CFB06F03DF803F00BFB03F00A
S3150000398C0BFB00210546204605F08AFF2846BDE8BC
S3150000399C384003F005BB0224DFE70324DDE7FFF71D
S315000039ACCDBF0000252910B40C4607D80B49097861
S315000039BC89B1E1B25DF8044B28F0D6BBFF2903D9D7
S315000039CC5DF8044BFFF7B2BC40F2951104485DF864
S315000039DC044BFEF78BBF5DF8044B70471F3000207D
S315000039EC2EA6030037B5104C01230020237008F0D7
S315000039FC53FD254640B1002008F04EFD20B10023B2
S31500003A0C2370492003B030BD02230DF106007F223E
S31500003A1C0021FFF7C7FFBDF806300020B3F57F7F06
S31500003A2C1CBF28700720EDE71F30002025282DE944
S31500003A3CF0410546884616461F4616D8124B1B788B
S31500003A4C8BB1124C237823B14FF4D0711048FEF78A
S31500003A5C4DFF0123237042463B463146E8B228F01F
S31500003A6CC5FB00232370BDE8F081FF2805D931463C
S31500003A7C1A46BDE8F041FFF77DBC4FF4D6710448F9
S31500003A8CBDE8F041FEF732BF1F3000200D3000209C
S31500003A9C2EA60300024B1B780BB128F099BC70477D
S31500003AAC1F30002070B5164685180AB9304470BD13
S31500003ABC01F00F030A2B34BF302437242344013A78
S31500003ACC090905F8013DD2B2EFE70000F0B5F9B1EE
S31500003ADC00281CDA2D23B0F1004F137000D04042A1
S31500003AEC012115E0801B8642ECB205F10105F9D9DE
S31500003AFC04B927B14D1C303454540127E9B20133B3
S31500003B0C092B09D1303050540131C8B2F0BD002117
S31500003B1C0023DFF80CC01F465CF823600025E2E7A3
S31500003B2CA4A603002DE9F04F95B04FF0000B02ACA4
S31500003B3C81468A4617461D465E46A0463B7863B9C3
S31500003B4C02ABE41AE4B2224619465046C84700288E
S31500003B5C40F093803444E0B290E0252B13D0BBF1B7
S31500003B6C000F14D12370013412AB9C426DD3A4EB1D
S31500003B7C0804E4B2224641465046C84700287CD188
S31500003B8C2644F6B260E0BBF1000F00D101373B785A
S31500003B9C632B00F092801BD8392B09D8302B80F080
S31500003BAC9E80002BCCD0252B51D04FF0000BDBE7A1
S31500003BBC582B00F08B80622BF7D12B6801936B6826
S31500003BCC00934FF0000B009B9B4543D10835ECE767
S31500003BDC702B1ED017D8642B01D06C2BE5D16C2B17
S31500003BEC05F1040B28686CD17B78752B14BF012169
S31500003BFC002101D0642B00D101372246FFF766FF66
S31500003C0C04445D46D1E7752BE9D0782B5ED0732B37
S31500003C1CCBD1A4EB0804E4B2224602A9504605F126
S31500003C2C040B2D68C84740BB2644F6B2C4B201301B
S31500003C3C2B5D002BFAD1224629465046C847E0B9DF
S31500003C4C26445D46F6B283464446013776E7237032
S31500003C5C0134AAE7019B204613F80B100222FFF74A
S31500003C6C21FF12AB984204460ED3A0EB0804E4B233
S31500003C7C224641465046C84718B1002015B0BDE84B
S31500003C8CF08F2644F6B24446009B013B5B4582BF4F
S31500003C9C20232370013412AB9C420BD3A4EB0804F3
S31500003CACE4B2224641465046C8470028E5D1264490
S31500003CBCF6B244460BF1010B85E72B6823700435ED
S31500003CCCC6E7752B0CBF0021012196E72046022280
S31500003CDC2978FFF7E7FE05F1040B044691E77A789D
S31500003CEC02F0DF02582A19D1322B07F1010B09D148
S31500003CFC29882F1D04222046FFF7D4FE3D46044694
S31500003D0C5F4652E7342B09D12F1D2D680422290C4E
S31500003D1C2046FFF7C7FE0422A9B2EDE74FF0010BD0
S31500003D2C22E70EB403B503AA52F8041B019208F05D
S31500003D3C93FAC0B202B05DF804EB03B07047000012
S31500003D4C0149FFF7EEBF00BF8D3703000EB433B544
S31500003D5C05AA054652F8041B019208F07DFA0446A2
S31500003D6C2846FFF7EDFFE0B202B0BDE8304003B0E5
S31500003D7C704708B508F070FAC0B208BD2DE9F04FCF
S31500003D8C9B46584B85B01B78109F9DF844A0DDF8D8
S31500003D9C5080064689461546002B00F09280072A6D
S31500003DAC00F291800E9B002B00F08D800F9B002B58
S31500003DBC00F08980129BB3F5006F00F38480012814
S31500003DCC01D1002F7FD0484B03EB05131B7B002B37
S31500003DDC7BD0464C1022002168462FF074FC04EB75
S31500003DEC45141022B9F1000F5CD1494620462FF03C
S31500003DFC6AFCA37843F01003A370E37843F0300316
S31500003E0CE370BAF1000F03D1DBB243F00303E370A6
S31500003E1C3649129BCDF800B06A01013B885A01EB7A
S31500003E2C020C63F30E1088520E9BCCF808300F9BD5
S31500003E3CCCF804309DF84C109CF80330012E61F33D
S31500003E4C83038CF8033042D11323CCF80C309CE856
S31500003E5C0F000CF1100E8EE80F00DCF81C20CCF8CD
S31500003E6C14706FF0030161F39F02B9F1010FCCF8E6
S31500003E7C1C2004D10F9BCCF81830CCF804701A49CE
S31500003E8C2A018B1841F802800027159A5A60284699
S31500003E9C9F605E732246694603F086FE384605B07F
S31500003EACBDE8F08F002120462FF00DFC1023A370E7
S31500003EBC0323E370BAF1000FAAD1DBB243F030034F
S31500003ECCA5E70B48EBE70B48E9E70B48E7E7B8F142
S31500003EDC000FD4D19CF8023068F304138CF802302E
S31500003EECCDE700BF8F2F0020AC21002098220020A8
S31500003EFC028000F0018000F0078000F038B5104B0E
S31500003F0C1B780546BBB1C0B103F055F80D4900232B
S31500003F1C01EB0312147B3CB92B6001231373146061
S31500003F2C03F04FF8204638BD0133082BF0D103F0CF
S31500003F3C48F80548F7E70548F5E70548F3E700BFF5
S31500003F4C8F2F0020AC210020048000F0028000F0AE
S31500003F5C018000F038B503F02EF80B4A0546002315
S31500003F6CD1180C7B5CB91033802BF9D103F0D2FD40
S31500003F7C064B28461C7003F024F8204638BD28460C
S31500003F8C03F01FF80248F9E7AC2100208F2F002020
S31500003F9C058000F00D4B1B7810B5044693B107282D
S31500003FAC12D803F008F80A4B03EB04131A7B2AB158
S31500003FBC00241C7303F005F8204610BD03F001F82D
S31500003FCC0448FAE70448F8E70448F6E78F2F002080
S31500003FDCAC210020068000F0028000F0018000F089
S31500003FEC13B5164B1868019000238DF8043002F0B7
S31500003FFCE2FF134B1C7824B102F0E3FF114802B028
S3150000400C10BD01221A7002F0DCFF0F4B1C731C77DB
S3150000401C83F82C4083F83C4083F84C4083F85C4092
S3150000402C83F86C4083F87C4004230DEB03008DF879
S3150000403C073003F08FFD2046E1E700BFC8A603005A
S3150000404C8F2F0020038000F0AC21002010B588B023
S3150000405C0E9C07940D9C06949DF8304005940B9C81
S3150000406C04949DF8284003940024CDE90134009271
S3150000407C0B46024621462046FFF780FE08B010BDCF
S3150000408C10B588B00E9C07940D9C06949DF8304094
S3150000409C05940B9C04949DF8284003940024CDE9C8
S315000040AC013400920B46024601212046FFF766FEBC
S315000040BC08B010BD08B50A4B1B785BB107280BD8A6
S315000040CC084B03EB00131B7B43B1002103F038FDB7
S315000040DC002008BD0448FCE70448FAE70448F8E762
S315000040EC8F2F0020AC210020028000F0018000F010
S315000040FC078000F008B50A4B1B785BB107280BD874
S3150000410C084B03EB00131B7B43B1012103F018FD95
S3150000411C002008BD0448FCE70448FAE70448F8E721
S3150000412C8F2F0020AC210020028000F0018000F0CF
S3150000413C078000F008B50A4B1B7853B107280AD83C
S3150000414C084B03EB00131B7B3BB103F07FFD0020F8
S3150000415C08BD0548FCE70548FAE70548F8E700BF3F
S3150000416C8F2F0020AC210020028000F0018000F08F
S3150000417C078000F00D4B1B7893B1072812D889B134
S3150000418C0B4B03EB00131B7B73B10A4B1A6A01230F
S3150000419C03FA00F010401ABF00200B70087070472D
S315000041AC0548704705487047054870478F2F002013
S315000041BCAC21002000200E40028000F0018000F0AF
S315000041CC078000F00B4B1B7810B50C4663B1072823
S315000041DC0CD859B1084B03EB00131B7B43B103F00E
S315000041EC4BFD2060002010BD0448FCE70448FAE7AC
S315000041FC0448F8E78F2F0020AC210020028000F045
S3150000420C018000F0078000F02DE9F843174E326E5E
S3150000421CF36E12EA030800D5FEE7154CDFF854904E
S3150000422C0127002518EA070F16D02368B7669BB13D
S3150000423CA16862680131A16028469847637B012B0F
S3150000424C0AD148B909EB4513197B1A7F60F3410172
S3150000425C60F3410219731A770135082D4FEA4707A7
S3150000426C04F11004DED1BDE8F88300BF00200E4037
S3150000427CAC2100209822002070B5094E0446012579
S3150000428C04B970BD94FAA4F0B0FA80F005FA00F304
S3150000429C24EA030456F82030002BF1D09847EFE7B8
S315000042ACA424002008B5122002F09CFE28B1084B6D
S315000042BC4FF48022C3F880211A600A2002F092FE85
S315000042CC28B1034B4FF48062C3F880211A6008BDF5
S315000042DC00E100E038B504460D4602F06CFE034BD7
S315000042EC43F82450BDE8384002F06BBEA4240020ED
S315000042FC054BD3F82804D3F81C24104000F0553095
S3150000430CC3F82404FFF7B8BF00A00040054BD3F850
S3150000431C2804D3F81C24104000F0AA30C3F8240457
S3150000432CFFF7AABF00A0004038B500F061FB0A4CAD
S3150000433C0A4B1A6823680025C31A02B10BB9206010
S3150000434C38BD5169994225BFCB1A5361556100237B
S3150000435C38BF5B1A9268F0E7F0250020D4290020BC
S3150000436CC38870B504460D463BB905F0F7FA85428D
S3150000437C064602D205F00CFB3546104A65611368F9
S3150000438C1046ABB91460A36011E06D1A99686561AB
S3150000439C1A4679B10B465969A942F6D90029F4D0C7
S315000043AC52B19460A36013B15969491B596170BD30
S315000043BC0022F0E70B46F4E70460F3E7D42900206B
S315000043CC38B50F4B0F4D1C682B685B6902201C44DB
S315000043DC00F03CFB204600F011FB0B492A68002339
S315000043EC0B70D088800702D501230B7038BD9268FC
S315000043FC002AFBD050690344012BF2D9F6E700BF23
S3150000440CF0250020D4290020B62F002070B51646C2
S3150000441C9DF814200271049A0260C0E9033600224A
S3150000442CBDF818308260C38004460D4600F0E0FAF1
S3150000443C3044A0613DB9E368656113B1216820463B
S3150000444C984796B1354602F0B6FD0646FFF76CFF67
S3150000445C29462046FFF784FF054B1B68A34201D172
S3150000446CFFF7AEFF304602F0ACFD002070BD00BF7A
S3150000447CD42900200C4A136800217BB183420AD14F
S3150000448C836879B18B6083681BB15A6941690A44A8
S3150000449C5A610020704719469B68EEE70028EFD05A
S315000044AC022070471360EEE7D429002070B5154E34
S315000044BC02F081FD34780546FCB9134B1C60134B96
S315000044CC1C60134B1C8000F051FA012000F0BEFA60
S315000044DC00F00AFB0F4B0246186020B9284602F082
S315000044EC70FD232070BD23460B4840F2E7312EF0B9
S315000044FCFFFE0A4B186001233370284602F061FD5B
S3150000450C0020EFE7972F0020D4290020F02500206B
S3150000451C162C0020D029002018FCFFFFFC250020BB
S3150000452C2DE9F0410546F8B102F045FD0F4F064660
S3150000453CFFF7FAFE2846D7F80080FFF79BFF0446E4
S3150000454C28B1304602F03DFD2046BDE8F081A84575
S3150000455C3B6803D123B1FFF733FFF2E7002BF0D111
S3150000456C022000F081FAECE72224EDE7D4290020A2
S3150000457CF0B50D4685B016461F46044680B1FFF7CA
S3150000458CCFFFBDF82C3002939DF828300022CDE9E0
S3150000459C0073294633462046FFF738FF05B0F0BDB9
S315000045AC2220FBE738B50C46054698B191B100239D
S315000045BC0B7002F000FD084B1B6801210BB1227831
S315000045CC1AB102F0FEFC002038BD9D420CBF2170D2
S315000045DC9B68F3E72220F7E7D4290020F0B587B0D3
S315000045EC1F4600230D4616468DF817300446A0B11B
S315000045FC0DF11701FFF7D6FF9DF817207AB9BDF814
S3150000460C343002939DF830302946CDE900732046AC
S3150000461C3346FFF7FBFE07B0F0BD2220FBE7032075
S3150000462CF9E70000F8B50C460646C8B1C1B102F070
S3150000463CC2FC0546FFF778FE73692360134B1B68B3
S3150000464CB3420FD023B9284602F0BBFC03201CE072
S3150000465C596922689B680A442260F1E700230FE03F
S3150000466C222012E00A4E276800F0C2F93368C01AFD
S3150000467C8742F3D900F0BCF93368C01A23681B1AB9
S3150000468C2846236002F09DFC0020F8BDD4290020AA
S3150000469CF0250020F8B507460E4602F08CFC124BAE
S315000046AC1B680546002423B9284602F08AFC1B2009
S315000046BC15E05A691444DA88BA4213D10B4F00F04C
S315000046CC97F93B68C01AA0420AD200F091F93B68F0
S315000046DCC01A201A3060284602F073FC0020F8BD80
S315000046EC0020F7E79B68DEE7D4290020F0250020A0
S315000046FC014B1878704700BFB62F002038B502F072
S3150000470C5AFC054600F074F90446284602F059FC9A
S3150000471C204638BD70B502F04EFC064600F068F92E
S3150000472C094B1C8805460120A4B200F0B5F918B156
S3150000473C00F05EF901340546304602F042FC0022D8
S3150000474C42EA0500214670BD162C0020014B186864
S3150000475C704700BFD02900200A4B1B68834210B556
S3150000476C0C460CD3084B19684FF47A720023A0FB45
S3150000477C01012EF0BDFD01302060002010BD21206E
S3150000478CFCE700BFFC250020D0290020104B1A683E
S3150000479C10B5B2B14FF47A73A0FB0301531E13424A
S315000047AC11D1B2FA82F2C2F11F02C2F12004A2F1B7
S315000047BC200301FA04F420FA02F2224321FA03F34D
S315000047CC1A43104610BD00232EF092FD0246F8E760
S315000047DCD0290020F8B516461BA3D3E900238B423B
S315000047EC08BF82422AD3174B1A683AB34FF47A732E
S315000047FCA0FB034503FB0155531E13EA020014D11B
S3150000480CB2FA82F2C2F11F02C2F12007A2F1200114
S3150000481C24FA02F305FA07F73B4325FA01F10B4399
S3150000482C25FA02F2C6E90032F8BD002320462946D5
S3150000483C2EF05EFDC6E900010020F5E72120F3E726
S3150000484CAFF30080D0290020EFA7C64B3789410073
S3150000485CC2072DE9F04704460BD5414A13880133AC
S3150000486C9BB21380FFF760FD3E4B1B680BB1FFF745
S3150000487CA7FDA30771D502F09EFB0546FFF754FD75
S3150000488C0026DFF8E090B046D9F800400CB1636919
S3150000489C93B1354B0022B8F1010F1A7003D1022ED9
S315000048AC08BF83F80080002C46D0FFF789FD284608
S315000048BCBDE8F04702F085BB23465A693AB91A7926
S315000048CC2179914288BF1C469B68002BF5D128465E
S315000048DC02F077FB25699DB300231F4600F088F88C
S315000048ECA1692E46451AEB17AE4277EB030329DA7C
S315000048FC23690B44A361012322697AB173B9761B30
S3150000490C02F059FB314605462046FFF729FDA369FF
S3150000491C22691344A361284602F053FBE368E68838
S3150000492C08F1010813B121682046984702F043FBB1
S3150000493C0546FFF7F9FCA7E7022000F095F8B6E765
S3150000494C0022164602F037FB82462046FFF792FD00
S3150000495C504602F036FB0023CEE7BDE8F08700BFD9
S3150000496C162C0020D42900201530002010B51C4B25
S3150000497C86B05968186803AA03C2197A53F8090F46
S3150000498C117001909A8817489B79ADF8082001217F
S3150000499C8DF80A30002401F0F9FE03A88DF80C40BE
S315000049AC8DF8104003F022FB01A901208DF804407C
S315000049BC03F0FCFA0C4A536A23F4FF6323F0070353
S315000049CC536240F2FF7313620120946003F008FBFC
S315000049DC064B4FF08042C3F880211A6006B010BD1A
S315000049ECCCA60300A00914000020044000E100E05E
S315000049FC014B9868704700BF00200440114A936829
S31500004A0C516D9269520704D4CA1A032A01D89942E5
S31500004A1C0DD1C21A022A98BFD81C0A4BB0F1FF3F1F
S31500004A2C38BF013858655A6A42F004025A62064A7F
S31500004A3C137833B103490B6D43F002030B65002366
S31500004A4C1370704700200440581F00208207054A47
S31500004A5C00F00103516A48BF43F004030B43536251
S31500004A6C704700BF00200440830700F0010209D5FF
S31500004A7C074B0121197007490B6D23F0030342F014
S31500004A8C04020B6503494B6A23EA02034B62704727
S31500004A9C581F002000200440064B01289B6904D0B7
S31500004AAC022805D1C3F38000704703F0010070475C
S31500004ABC002070470020044010B502F07CFA094A29
S31500004ACC93690446590703F0010003F0070348BF36
S31500004ADC40F002001362FFF7BBFE2046BDE8104013
S31500004AEC02F06FBA00200440014801F09BBF00BFE2
S31500004AFCA0091400044B4FF04042DA621A6B22F004
S31500004B0C40421A63704700BF00300E402C48F0B587
S31500004B1C002203682B4D114654592CB11E68AC1853
S31500004B2C002E36D1234601210832282AF4D101B1B0
S31500004B3C03602549254E0B680022144695592DB164
S31500004B4C1F68B518002F2BD12B4601240832282AB2
S31500004B5CF4D104B10B6000681D4B026842B3DA69EC
S31500004B6C007922F0FF020243DA611A6B42F08042AE
S31500004B7C09681A630A68164BF2B1DA69097922F4E4
S31500004B8C7F4242EA0122DA611A6B42F000421A6352
S31500004B9CF0BD1E792779B74284BF23460121C3E7AE
S31500004BAC1F7995F804C0BC453CBF2B460124CDE7C4
S31500004BBC1A6B22F08042DBE71A6B22F00042E6E722
S31500004BCCD425002080290020F8250020A8290020C3
S31500004BDC00300E4008B5174B174801221A700021F9
S31500004BEC28222EF070FD2822002114482EF06BFD91
S31500004BFC134A144B1360144A1360144A1368526D0B
S31500004C0CC3F30743FF2B02D0D2B2FF2A01D1902265
S31500004C1C192303EB830302EBD3030D4A1360FFF74F
S31500004C2C69FF0C4B0122C3F880211A60FFF76EFF57
S31500004C3C002008BD4E2E002080290020A829002027
S31500004C4CD425002058260020F8250020B081E00F3E
S31500004C5CA821002000E100E008B502F087FE9FEDD8
S31500004C6C137A07EE900AF4EEC77AF1EE10FA19D41D
S31500004C7C9FED0F7AF4EE477AF1EE10FAC8BFF0EE1C
S31500004C8C477A17EE900A2EF081F80022094B2DF088
S31500004C9C1FFF0022084B2DF01BFF2EF0E1FA803887
S31500004CAC40B208BDF0EE477AEBE700BF000000C348
S31500004CBC0000FE420000E03F0000604070B5144C5E
S31500004CCC226B616A0A4011D5124B1B681E6836B1FD
S31500004CDC00251D605D60FFF7BFFF2946B0474FF00A
S31500004CEC0043E362BDE87040FFF710BF5300F9D5EF
S31500004CFC094B1B681C6834B100221A605A60FFF716
S31500004D0CABFF0121A047024B4FF08042DA62E9E784
S31500004D1C00300E40F8250020D4250020FFF7CEBF2A
S31500004D2C38B141B1013AB2F5006F044838BF0020E2
S31500004D3C7047034870470148704700BF037000F086
S31500004D4C027000F038B504460D4602F034F9A2881C
S31500004D5C92B222B92A6002F034F9064838BD63884B
S31500004D6C142202FB034308332B6002F02AF90020BD
S31500004D7CF4E700BF0B7000F038B504460D4602F0A0
S31500004D8C1AF9A3889BB223B92B6002F01AF90C48C6
S31500004D9C38BD6388E188142202FB034308332B6079
S31500004DAC63885A1C92FBF1F301FB13239BB26380BD
S31500004DBCA388013B9BB2A38002F003F90020E7E72E
S31500004DCC0B7000F0F8B5044617460D4602F0F3F8E2
S31500004DDCA388E2889A42064605D800233B6002F077
S31500004DECF0F81648F8BD2388142202FB0343083357
S31500004DFC05F1100C2A4603CA62451860596015461F
S31500004E0C03F10803F6D1106818602388E188142290
S31500004E1C02FB034308333B6023885A1C92FBF1F3D5
S31500004E2C01FB13239BB22380A38801339BB230462C
S31500004E3CA38002F0C6F80020D4E700BF0A7000F089
S31500004E4C034610B593F832300068012B0CD102F0F2
S31500004E5C49FF044630B1FFF779FC24235843B0FBD5
S31500004E6CF4F40134204610BD03F0F6F9F1E7000026
S31500004E7C427E30235343044A1A44437F03EBC20356
S31500004E8C9B001868C0B270471CA0104213B51D4A8F
S31500004E9C002352F82340617F81420ED00133042B4C
S31500004EACF7D102B010BD0028FBD19DF80730002BBE
S31500004EBCF7D06068FFF7FEF8F3E794F83130022B71
S31500004ECCEFD12046FFF7D4FF637D2075022BE8D186
S31500004EDC94F82E3003F0FF02002BE2D102A9606891
S31500004EEC01F8012DFFF746F9237D1BB194F82F30FD
S31500004EFC002BD8D0002384F82F306068FFF7FAF81F
S31500004F0CCFE700BFD829002090F8323053B9036898
S31500004F1C0422DA601A699007FCD55A6F42F0020235
S31500004F2C5A677047012B0CD103685A6C9107FCD455
S31500004F3C04225A609A689207FCD55A6D42F0020216
S31500004F4C5A65704790F8323053B903680122DA601B
S31500004F5C1A69D007FCD55A6F42F001025A6770479E
S31500004F6C012B0CD103685A6C9107FCD401225A60B0
S31500004F7C9A68D207FCD55A6D42F001025A65704701
S31500004F8C90F832303BB903685A6F22F001025A6727
S31500004F9C0222DA607047012B09D103685A6C92071A
S31500004FACFCD45A6D22F001025A6502225A607047EF
S31500004FBC0F49104B0A782AB9C3E90022C3E9022229
S31500004FCC01220A70002253F82210814208D00132C5
S31500004FDC042AF8D1002153F821201AB943F82100EC
S31500004FEC0020704701310429F5D10348704700BFF2
S31500004FFC21300020D8290020027000F010B504469C
S3150000500CFEF7EEFF0021201DFEF778FF014608B1E2
S3150000501C044810BD04F10800FEF770FF0028F8D014
S3150000502CF6E700BF0E7000F070B5054601F0C3FF41
S3150000503C6C6B013C06466C634CB901F0ADFF214626
S3150000504C0546012004F02CFC284601F0A9FF304649
S3150000505CBDE8704001F0B5BF37B591F832200B684A
S3150000506C012A0BBF9C681C69C4F3C004C4F340142A
S3150000507C0D46084634B1FFF7D7FF022385F83830C2
S3150000508C03B030BDFFF7DCFECDE9004401462B46EC
S3150000509C024A05F13C00FFF7A1FAF1E76550000062
S315000050AC70B5044601F087FF636B05464BB901F0FA
S315000050BC73FF01210646084604F0F2FB304601F068
S315000050CC6FFF636B013363632846BDE8704001F0E4
S315000050DC78BF00007FB5012380F82C3090F8323071
S315000050EC93B90C4A036803920022049002924A6810
S315000050FC0192012200920A68016980681C33FEF74E
S3150000510CBFFF07B05DF804FB012BEAD0002380F843
S3150000511C2C30F6E7815800002DE9F041012380F888
S3150000512C2D3090F8323088B004460F466BBB0568BC
S3150000513C343501F040FF04F13C0680460DF11F01A9
S3150000514C3046FFF72FFA40B99DF81F302BB1304689
S3150000515CFFF7E6F92046FFF767FF4046012601F008
S3150000516C30FF204684F83860FFF79AFF0E4B039306
S3150000517C0023049402937B68E1686068CDE90063C0
S3150000518C2A463B68FEF762FF0BE0012B06D1056849
S3150000519C2B6843F4005345F8283BCAE7002380F8F4
S315000051AC2D3008B0BDE8F081B9510000F0B585B0DE
S315000051BC03A9906A1446FFF7C5FD06462046FFF77D
S315000051CC3FFE002523460146CDE900551B4A04F156
S315000051DC3C00FFF703FA1A4B9E421FD0039B1D613E
S315000051EC9D6001F0E8FE039AD768064627B1D2E91E
S315000051FC002329462046B84703A9A06AFFF7BCFD41
S3150000520CA06A83889BB263B103A9FFF79BFD039940
S3150000521C2046FFF781FF304601F0D3FE012005B092
S3150000522CF0BD84F82D3094F83230012B01BF226882
S3150000523C136823F400531360EDE700BF65500000BC
S3150000524C0B7000F073B504460D46C07DE67E002952
S3150000525C34D001230422314602F01AFC0123022227
S3150000526C217F207E02F014FC94F83130022B16D1EB
S3150000527C00230122617F607E02F00AFC00230422D7
S3150000528CA07EA17F02F004FC0123627F607E019365
S3150000529C0093114602F0B6FB002002B070BD032B42
S315000052ACFAD100230122617F607E02F0F1FB00231C
S315000052BC0422A17FA07E02F0EBFBEDE70B460A462B
S315000052CC314602F0E5FB2B462A46217F207E02F072
S315000052DCDFFB94F83130022B10D12B462A46617F26
S315000052EC607E02F0D5FB2B462A46A07EA17F02F0FB
S315000052FCCFFB627F607E01950123C9E7032BCBD1DF
S3150000530C2B462A46617F607E02F0C2FB2B462A465C
S3150000531CCFE790F8323013B9036818697047012B40
S3150000532C1CD103689B6803F00200DA0748BF40F003
S3150000533C0100590748BF40F008001A0748BF40F063
S3150000534C2000D90648BF40F040009A0648BF40F0FE
S3150000535C80005B0603D540F4005070470020704770
S3150000536C2DE9F3410D46044600287FD001F023FEBB
S3150000537C012D064641D1A36A9B889BB2002B43D0D4
S3150000538C6068FEF7D7FE0023A06A84F82D30838868
S3150000539C9BB273B101A9FFF7D5FC01996068394F2F
S315000053AC0831FEF70FFF019B1F61A06A83889BB231
S315000053BC83BB2046FFF7ADFF8304FAD5023D012DD2
S315000053CC10D8A068FEF7B6FE0023606A84F82C306D
S315000053DC83889BB26BBB94F83130032B02D02046EA
S315000053ECFFF7CEFD636B002B02DD2046FFF71CFE9C
S315000053FC304601F0E6FD002009E0022D38D1636A43
S3150000540C9B889BB2002BD9D101F0DBFD1E4802B064
S3150000541CBDE8F08101A9FFF7AFFC019BD3F80C8026
S3150000542CB8F1000FC1D09B68002239462046C04710
S3150000543CBBE76946FFF786FC0099A068114F083157
S3150000544CFEF7C0FE009B1F61606A83889BB2002B2F
S3150000545CC1D06946FFF790FC009BDD68002DF3D0A8
S3150000546C9B68002239462046A847EDE70748CEE759
S3150000547C032DA3D1A36A9B889BB2002B80D1636AB0
S3150000548C7AE700BF097000F0087000F0027000F0B7
S3150000549C436A9888C0B270472DE9F3410546406AC5
S315000054AC84889846A4B200230E461746CDE90033ED
S315000054BC3CB16946FFF746FC01A90446A868FEF70D
S315000054CC81FE009971B16CB94868019BC01A3860AD
S315000054DCC8F800300B6833602846FFF71AFF02B095
S315000054ECBDE8F0810021C8F8001039603160F3E79F
S315000054FC836A9888C0B270472DE9F3410546806AE5
S3150000550C84889846A4B200230E461746CDE900338C
S3150000551C3CB16946FFF716FC01A904466868FEF71C
S3150000552C51FE009971B16CB94868019BC01A38607C
S3150000553CC8F800300B6833602846FFF7EAFE02B065
S3150000554CBDE8F0810021C8F8001039603160F3E73E
S3150000555C007D70472DE9F04104460E461746FFF7CD
S3150000556CDFFB804670BB092001F04AFD0546A26AA6
S3150000557C93889BB213B194F82E3033B394F832302F
S3150000558C43BB23681D6905F002051DB92046FFF7CC
S3150000559CBBFC0025012384F8303094F832301BBB59
S315000055AC3744BE4220681AD103699E06FCD54DB914
S315000055BC94F832303BBB23685A6F22F002025A67CA
S315000055CC0822DA604046BDE8F081002DD0D0FEF707
S315000055DC1BFECCE7012BD9D123689D68D3E716F8BF
S315000055EC011B02F0C3FEDCE7012BEBD13744B742BB
S315000055FC206803D183681907FCD5D8E716F8011B78
S3150000560C02F0A4FBF3E7012BDCD123685A6C92075A
S3150000561CFCD45A6D22F002025A6508225A60D1E770
S3150000562C10B50446B0B190F82E3033B990F831303D
S3150000563C022B0AD06068FEF73DFD94F82E3001333C
