S017000047535F57617465725F70756D705F76322E733337B9
S3150000000020180020559E0200913100009531000015
S31500000010A70A02020002000004180FAC206A0B01B6
S3150000002000000000000000000000000000000000CA
S31500000030000000007CAB0300000000000000000090
S315000000400000000000000000FFFFFFFFFFFFFFFFB2
S31500000050FFFFFFFFFFFFFFFFFFFFFFFFFFFFFFFFAA
S3150000006000E00F000000000000000000FFFFFFFF9F
S31500000070FFFFFFFF1C000000000000000000000062
S3150000008000000000000000008039002080390020B8
S315000000902018002040FC030090370300C00E00200B
S311000000A0840E002000001000000000008C
S3150000020020180020559E0200913100009531000013
S31500000210B597000099310000A1310000539E0200FD
S31500000220539E0200539E0200539E0200539E0200FC
S31500000230A5310000539E0200539E0200539E020009
S31500000240894D000075020300953400001832000045
S3150000025039FB0200CD02030081020300990203006C
S315000002607902030071420000594300001D65000039
S3150000027069C000001832000018320000111C00008E
S3150000028018320000183200007543000018320000D2
S315000002901832000018320000183200001832000030
S315000002A01832000018320000183200001832000020
S315000002B0D10203007D020300254B00000D0303005D
S315000002C018320000A9ED02001832000018320000B2
S315000002D018320000183200001832000018320000F0
S315000002E018320000183200001832000018320000E0
S315000002F018320000183200001832000018320000D0
S311000003001832000018320000539E020064
S3150000030CF8B500BFF8BC08BC9E467047F8B500BFF0
S3150000031CF8BC08BC9E46704710B5054C237833B91B
S3150000032C044B13B10448AFF300800123237010BDB6
S3150000033C802000200000000088F4030008B5034B61
S3150000034C1BB103490348AFF3008008BD0000000051
S3150000035C8420002088F40300154B002B08BF134B98
S3150000036C9D46A3F5803A00218B460F461348144A46
S3150000037C121A33F0D8F90F4B002B00D098470E4BBE
S3150000038C002B00D098470020002104000D000D48DA
S3150000039C002802D00C48AFF3008033F06DF9200032
S315000003AC29000CF017F933F053F900BF00000800D0
S315000003BC201800200000000000000000D01F0020C4
S315000003CC8039002000000000000000001FB51B4C07
S315000003DC1B48002301218DF80F3006F007FA194946
S315000003EC204606F00BF90123A360A36BDB07FCD5B3
S315000003FCA36C0A20A3F50063B3FBF0F032F0D4FC37
S3150000040C0022114B32F04AFD02460B4600200F49E2
S3150000041C32F08CFB32F07CFF0D4B186004AB0022E3
S3150000042C03F8010D0120009008210EF0D5F90021EA
S3150000043C034806F0DBF904B010BD00BF00200040F5
S3150000044C00D20400AA1F00200000F83F000059400B
S3150000045C7C21002037B5304D2B780133DBB22B7065
S3150000046C032B56D8DFE803F0420215340120002294
S3150000047C294B009040F204410EF0AEF9274B284868
S3150000048C1B784FF47A71594314F038FF254B03222D
S3150000049C36E0234B00241C70234B01251C700422D0
S315000004AC23460821204607F023FB1B4B00952246CA
S315000004BC40F2044128460EF08FF9184B1B481B7866
S315000004CC4FF47A71594314F019FF164B1D6018E05E
S315000004DC134B00241C70144B1C70144B04221C7000
S315000004EC08212346204607F003FB2C7001200A4BFB
S315000004FC0090002240F204410EF06EF9094B0222E4
S3150000050C1A600B484FF4FA7103B0BDE8304014F092
S3150000051CF5BE03B030BD00BFB42F00204F1F002026
S3150000052CC0340020A8210020B0340020B8340020AC
S3150000053CA834002038B5184D2B68022B23D0032B7A
S3150000054C25D0012B1ED1154C2368052B0EDC144827
S3150000055C00230370134B4022C3F808214FF4FA71A1
S3150000056C14F0CCFE2368013323600BE00B4B002404
S3150000057C1C60042223460621052007F0B9FA084B15
S3150000058C2C601C7038BD054C2368012BDEE7034C30
S3150000059C2368032BDAE700BFA8210020AC2100203A
S315000005ACA834002000A00040034A00231370082141
S315000005BC0422184607F09CBAB034002038B50C4C0F
S315000005CC0C48002542F21071257014F097FE28464F
S315000005DC01230821042207F08BFA074B1B784FF4F2
S315000005EC7A7159432046BDE8384014F087BE00BFE7
S315000005FCC0340020B03400204F1F00200F4B10B524
S3150000060C00241C70FFF7E2FE0D4B1B68272B0AD843
S3150000061C42F210710B4814F071FE012304220821DA
S3150000062C204607F065FA084B04481B784FF47A719C
S3150000063C5943BDE8104014F061BE00BFB834002029
S3150000064C7C210020B03400204F1F002008B5104B31
S3150000065C1B680BB918F0A0FC0023184601220621D2
S3150000066C07F046FA002318460422082107F040FA40
S3150000067C002304220621052007F03AFA054B032233
S3150000068C9A705A706E221A71FF225A7108BD00BFF9
S3150000069CB8151442AA1F00200F4B10B501241C607C
S315000006AC0CF054FE02280CD1234606210520042208
S315000006BC07F01EFA4FF4FA710848BDE8104014F022
S315000006CC1DBE0AF049FB2346042206210520BDE87F
S315000006DC104007F00DBA00BFA8210020A834002056
S315000006EC28B1002304220621052007F001BA044B89
S315000006FC044801224FF4FA711A6014F0FFBD00BFD2
S3150000070CA8210020A834002007B5064B1A78012032
S3150000071C3C321A700821009011220EF05DF803B0DD
S3150000072C5DF804FB4F1F002007B5094B09288CBF49
S3150000073C18700A224FF0010098BF1A700821009019
S3150000074C034B11220EF048F8002003B05DF804FBB1
S3150000075C4F1F002010B542F21071054814F0CEFD63
S3150000076C0123042208210020BDE8104007F0C0B97F
S3150000077CB034002008B542F21071054814F0BEFDE5
S3150000078C012304220821002007F0B2F9002008BD3D
S3150000079CB034002008B5FFF719FE002318460422D2
S315000007AC082107F0A5F9002008BDFFF753BE08B5D0
S315000007BCFFF750FE002008BD08B5C37B1BB9C37CF0
S315000007CC1BB1012B0FD0812008BD017D82898B1CAA
S315000007DC9A420BD380680EF0CAFD09F09DFC0028E6
S315000007ECF1D00020F0E709F0AFFCF8E78020EBE74A
S315000007FCF8B5C37B04464BBBC37C052B26D8DFE878
S3150000080C03F00327323E494C057D8289AB1C9A4284
S3150000081C01D28020F8BDADB2294680680EF0A7FD46
S3150000082C0646A068A789023528440EF0C5FD284463
S3150000083C01308742EDD32946A289A0680EF09EFDB1
S3150000084C0146304608F0B4FC002845D18120E1E78A
S3150000085C017D82898B1C9A42DBD380680EF087FD62
S3150000086C08F0C6FCF0E7037D81895A1C9142D0D36F
S3150000087C8268591C1144D05C08F0F2FCE4E7017D57
S3150000088C82898B1C9A42C4D380680EF070FD08F0E6
S3150000089C69FDD9E708F0CCFDD6E7057D8289AB1C4E
S315000008AC9A42B6D3ADB2294680680EF060FD064674
S315000008BCA068A789023528440EF07EFD2844013035
S315000008CC8742A6D32946A289A0680EF057FD014699
S315000008DC304608F0F5FDB7E700209BE7C37B2DE912
S315000008ECF7430446002B48D1C37C062B45D8DFE8DA
S315000008FC03F0044656667181A300057D8289AB1C04
S3150000090C9A4203D2802003B0BDE8F083ADB22946EB
S3150000091C80680EF02CFDA289E91C8A42064605F178
S3150000092C0203EFD3881C8242ECD3A068C75C0EF09E
S3150000093C1EFD8046A068B4F80C90053528440EF0D0
S3150000094C3BFD284401308145DCD32946A289A068A9
S3150000095C0EF014FD8146A06828440EF02DFD0130E2
S3150000096C0544A06810FA85F500954B464246394673
S3150000097C30460BF02FF800286AD18120C3E7057D9D
S3150000098C8289EB1C9A42BDD3ADB2294680680EF023
S3150000099CEEFC0235A368595D0BF09CF8EBE7057D80
S315000009AC8289EB1C9A42ADD3ADB2294680680EF013
S315000009BCDEFC0235A368595D0AF050FCDBE7017DCD
S315000009CC82898B1C9A429DD380680EF0D0FC0AF06B
S315000009DCB3FCD0E7057D8289EB1C9A4292D3ADB26B
S315000009EC294680680EF0C3FC0235A368595D0AF0EF
S315000009FC09FEC0E7057D8289AB1C9A4282D3ADB253
S31500000A0C294680680EF0B3FCA289E91C8A42064688
S31500000A1C05F10203FFF476AFA068C45C8B1C9A4206
S31500000A2C07D30EF0A4FC0246214630460AF052FECD
S31500000A3CA1E74FF6FF72F7E7017D82898B1C9A427C
S31500000A4CFFF460AF80680EF092FC0AF0DDFC92E7D2
S31500000A5C002058E708B5C37B2BB9C37C012B0AD001
S31500000A6C03D3022B0AD0812008BDFFF793FE002882
S31500000A7CF9D00020F8E7FFF77DFEF8E7FFF797FEC1
S31500000A8CF5E7F8B5C37B044633BBC57C25BB037DB4
S31500000A9C8289591C8A4221D39EB2711C881C8242BF
S31500000AAC1CD3A068C75C0EF062FCF31CB4F80CC037
S31500000ABC5A1C944522BFA268D25C331D014603F131
S31500000ACC010038BF2A4684452ABFA0680023C35CB0
S31500000ADC3846FFF729FE18B98120F8BD8020FCE7BF
S31500000AEC0020FAE710B5437D012B04460CD10368B0
S31500000AFC028A598858790DF069F928B123685B8800
S31500000B0C032B16D0C32015E0637D002BFAD1236886
S31500000B1C228A598858790DF050F90028F2D02368AA
S31500000B2C5B88062B2AD00FD8032B1DD003D8002B9D
S31500000B3CE8D1812010BD042B1BD0052BE2D1204619
S31500000B4CBDE81040FFF7CABEB3F5007FF1D006D85A
S31500000B5C082BD7D12046BDE81040FFF792BFA3F271
S31500000B6C0343012BE5D9CDE72046BDE81040FFF73E
S31500000B7C23BE2046BDE81040FFF73ABE2046BDE82E
S31500000B8C1040FFF767BF0120704701207047012016
S31500000B9C7047B5207047704700207047002070479B
S31500000BAC00207047002070470020704700207047D7
S31500000BBC002070470120704701207047B520704710
S31500000BCC00207047002070470020704700207047B7
S31500000BDC704700207047B52070470020704770475B
S31500000BEC704700207047842070477047002070477C
S31500000BFC70477047704770477047704770470020C2
S31500000C0C7047704700207047704770470020704748
S31500000C1C7047704770477047012070470020704737
S31500000C2C034B1B681878012808BF0220704700BFC9
S31500000C3CA823002000207047704700207047002032
S31500000C4C7047002070470020704700207047002036
S31500000C5C704700207047002070470020704770478F
S31500000C6CB520704700207047002070470020704761
S31500000C7C7047704770477047704700207047B52023
S31500000C8C7047704770477047002070477047704731
S31500000C9C70477047094A0023FF21137082F8783099
S31500000CAC82F8653082F8773082F8793082F87A10DB
S31500000CBC82F87B30024A1360704700BFA32E0020D7
S31500000CCCC83400202DE9F0470D468F680A683A496A
S31500000CDC0446202003F053F86B68ABB93749202043
S31500000CEC03F04DF820200AF085FFEA681AB1344962
S31500000CFC202003F044F83349202003F055F8202037
S31500000D0CBDE8F0470AF076BF002CEBD0EB681BB1C0
S31500000D1C2D49202003F033F8DFF8D880DFF8D8907F
S31500000D2CDFF8D8A0013F002617F8014F24B9254952
S31500000D3C202003F039F8D5E72B691BB1414620205A
S31500000D4C03F01DF8752C24D0762C24D0772C24D0C7
S31500000D5C732C24D0722C24D0712C24D0622C24D049
S31500000D6C6E2C24D02A2C24D01849194B212C08BFC0
S31500000D7C1946202003F003F8212CD5D02B692BB172
S31500000D8C53F826201349202002F0F9FF0136F6B25B
S31500000D9CCAE74946EDE75146EBE70F49E9E70F4944
S31500000DACE7E70F49E5E70F49E3E70F49E1E70F49A5
S31500000DBCDFE70F49DDE700BF8FAD0300B855030031
S31500000DCC53380300D4370300433803002538030097
S31500000DDC283803004D380300EC370300F8370300BE
S31500000DEC023803000D38030018380300B75503000A
S31500000DFC22380300E4CC0300E1370300D5370300A7
S31500000E0CF0B5214A92F87B30184452FA80F01F4B09
S31500000E1C90F865C090F866501F78A5EB0C05002677
S31500000E2CEDB23046F4B2A54225D90CEB06031344B9
S31500000E3C5B7811B10CB92D2B17D0782B1FD0582BF2
S31500000E4C05D108B137240AE0013C012C14D9602BDA
S31500000E5C17D8402BF6D83A2B34BF302400241B1B52
S31500000E6CDBB29F4203D900FB07300136DAE70523D4
S31500000E7C82F879300020F0BD10270020F5E7002815
S31500000E8CE2D05724EBE700BFA32E00207C1F0020E6
S31500000E9CFFF700BF034B93F8770093F87B30C01A2B
S31500000EACC0B27047A32E00200021FFF7A9BF000097
S31500000EBC10B50A4B93F87B20024453FA82F292F84F
S31500000ECC652013445C78A4F12D0359425941FFF770
S31500000EDC97FF2D2C08BF404210BD00BFA32E00204B
S31500000EEC30B50C4A92F87B300344C043DBB2C00FDA
S31500000EFC39B1D51895F8664095F86550641B241AD7
S31500000F0C0C7042FA83F393F865301844024B18447C
S31500000F1C30BD00BFA32E0020A42E00202DE9F341E6
S31500000F2C0F460DF1070115461C46FFF7D9FF9DF834
S31500000F3C0730AB4288BF8DF8075080469DF8076096
S31500000F4C0CB1AC1BE4B222460021384632F0EBFB66
S31500000F5C32464146381932F0CDFB304602B0BDE878
S31500000F6CF08138B508220C460123FFF7D7FF04F1B0
S31500000F7C0803621E043413F8011D12F8015F1D707C
S31500000F8CA3421170F7D138BD38B50146054601208C
S31500000F9CFFF798FED5E901436CB91C46084D23684A
S31500000FAC63B12946202002F0EAFE21460020FFF715
S31500000FBC89FE1434F3E71B786E2BEFD038BD00BFD7
S31500000FCCE4CC030008B50449202002F0D8FE20200A
S31500000FDCBDE808400AF00EBE9537030038B5FFF79A
S31500000FECF1FF064D002461191434631953F8143CAF
S31500000FFC03B938BD0020FFF765FEF4E7A0490300EE
S3150000100C2DE9F84F1F4B204D53F820201F49202067
S3150000101C02F0B5FE2B681BB9BDE8F84FFFF7DEBF33
S3150000102C1B4FDFF874A0FFF7CDFF0026B94697F8E3
S3150000103C7B30F4B2013B9C4204DB2868BDE8F84FD8
S3150000104CFFF7A2BF47FA86F34C4493F8658000235A
S3150000105CC84494F8662094F86510521A03F1010BF3
S3150000106CD2B2DBB2934205D30A49202002F087FEA6
S3150000107C0136DCE7434451465A78202002F07FFEC5
S3150000108C5B46E6E7541B0020C8340020903703006B
S3150000109CA32E0020E5CC030050D003002DE9F74F1A
S315000010AC884C94F87730002B00F0A280864B1B7886
S315000010BC13F0010F04F101071FD00025834E14E035
S315000010CC6319202093F8662093F86530D21A44FAF7
S315000010DC85F3D2B293F8651039440AF086FD314691
S315000010EC202002F04CFE0135EDB294F87730AB427D
S315000010FCE6D87749202002F042FE94F87730019327
S3150000110CDFF8D8E1734B002671461EF8012B91F8D7
S3150000111C01C04FF00008ACEB020C07EB020A5FFAB9
S3150000112C8CFC45461868002852D00138D14619E087
S3150000113C2AB9002D4AD04FF001081433F2E719F8FA
S3150000114C011BA1F1410BBBF1190F98BF2031A2F184
S3150000115C410B98BFC9B2BBF1190F9CBF2032D2B25A
S3150000116C8A42EAD1A9EB0A01614510F8012FDFD1B9
S3150000117C002ADED11D46584B1D6094F87B30013396
S3150000118C84F87B30D5E901230136F6B2002A35D036
S3150000119C1B786E2B31D03F2B23D04FF00009C8465D
S315000011AC4FF0070B042394F87710AA68B14212F893
S315000011BC08702BD8AFB1904498F801302A2B10D078
S315000011CC212F1CBF032384F879300AE01D46B4E7AF
S315000011DCB8F1000F01D1002DCDD1022384F879305E
S315000011EC002594F87900002869D168680DF0BAFDDD
S315000011FC03B0BDE8F04FFFF74DBD1346019AB2425E
S3150000120C82D8032284F879201D46EAE7732F09D881
S3150000121C712F0BD2212F1FD0622F3CD0002F4BD118
S3150000122C032246E0A7F17502022A45D8752F29D06C
S3150000123C762F2AD0732F2BD0722F47F6FF7A18BF32
S3150000124C4FF0FF3A012148460193FFF7D9FD50456F
S3150000125C019B01D984F87930AA68424452782A2A2B
S3150000126C94F879201CBF08F101085FFA88F8002A67
S3150000127CB7D1212F1FBF013609F10109F6B25FFA6A
S3150000128C89F990E74FF0FF0ADCE74FF6FF7AD9E7CA
S3150000129C4FF07F0AD6E794F87B204A4454FA82F240
S315000012AC92F8652022445278222AD5D07B2AD3D0B4
S315000012BC052284F87920CFE784F879B0CCE7FFF7DC
S315000012CC9FFE95E7A32E0020622F0020E5CC03009D
S315000012DCD2370300A0490300C8340020082F002091
S315000012EC2DE9F3415E4C5F4F06460D464FF0000864
S315000012FC66B90DF1070128460AF070FC78B126286C
S3150000130C00F0A980012384F879304BE0002D00F021
S3150000131CA28016F8013B8DF80730013DEDB23A7804
S3150000132C9DF807303B700D2A01D10A2BE0D00D2B0E
S3150000133C0CD0A3F10A025142514122788846042A64
S3150000134CD6D8DFE802F0051D263C31000121F4E772
S3150000135C21B1FFF7A3FE4FF00108C9E7202B63D09C
S3150000136C222B07D10223237094F87820642A5DD1AE
S3150000137C0623C8E77B2B01D10323F4E70123F2E70D
S3150000138C09B9202BF0D194F87730112B3FD10323D8
S3150000139CB9E7222BF7D00029E6D0052384F879305B
S315000013AC4FF0010804232370B8F1000FA0D094F875
S315000013BC790008B1FFF724FEFFF76CFC98E77D2B4C
S315000013CC94F87A0003D1FF28DDD005239BE7602B28
S315000013DC13D8402B13D8392B8CBF002230229A1AE3
S315000013ECD2B20F2A10D8FF280BD002EB0012FF2323
S315000013FC8DF8072084F87A30B6E75722EFE73722C4
S3150000140CEDE784F87A2073E7202BDED170E7013301
S3150000141CDBB284F87730234494F8782083F865207F
S3150000142C00232370002994D1884661E72378012B89
S3150000143C09D19DF80730A3F1410119299CBF20332E
S3150000144CDBB28DF80730A3189DF8071059700132DE
S3150000145C84F878204CE7404602B0BDE8F08100BF26
S3150000146CA32E0020BE2F002049BA89B24840C0F3F3
S3150000147C03114140080380B24840C3B280EA4310CE
S3150000148C704712F097BC000038B5A0F1430305462F
S3150000149C0A2B31D8DFE803F0060A0A121230303074
S315000014AC30301100BDE838402BF044B82BF00AF868
S315000014BC20B12BF03FF80028FBD138BD114C207819
S315000014CC0028FAD10123443D23700BF015F8032DA7
S315000014DC0DD8DFE805F00606090240F6010028F0F3
S315000014EC71FD00232370E8E740F60200F7E77A2146
S315000014FC054801F029FAF4E78C210348BDE8384089
S3150000150C01F022BAC22F0020C8380300704770477A
S3150000151C7047704770477047704770477047704701
S3150000152C704770477047002070477047704700201F
S3150000153C704770477047002070470020704770470F
S3150000154C7047704770477047704770477047000088
S3150000155C2DE9F047204DDFF8A090DFF8A0A000247D
S3150000156C5FFA84F8404613F03FF9FF2806460CD183
S3150000157C22461A49287802F017FC287801340AF01A
S3150000158C39FB152CECD1BDE8F087154B59F8242006
S3150000159C144947B213EA270338BF5346287802F09A
S315000015AC03FC002FE9DA14B1B8F1030F08D10E4B86
S315000015BC0E49287816F0010F18BF194602F0F4FBF5
S315000015CC0A2CDAD10A4B0B49287816F0010F18BFF2
S315000015DC194602F0E9FBD0E7C81F0020D1390300F9
S315000015ECD4370300F939030094390300AA390300F0
S315000015FCBC390300C639030040390300EACA0300AC
S3150000160C82B2074B42B11A80000C064B0ABF4FF64A
S3150000161CCE2218801A8070474BF6EF62F3E700BFB4
S3150000162C3E1F0020401F0020094B1888020448BFAB
S3150000163C80F0620042001A80064A1388190444BFDF
S3150000164C83F4805383F00B03590011805840704784
S3150000165C3E1F0020401F0020034B1870034B1970CF
S3150000166C034B00221A707047842E0020832E002014
S3150000167CB92F00202DE9F04F214E337885B007465F
S3150000168C8846002B39D04FF6FB73984235D81D4D42
S3150000169C1D4B2C784FF0000B9A46327818785FFA6F
S315000016AC8BF94A4511D9484402A9C0B201931DF0E1
S315000016BC83FD082241460DEB020032F001F80BF1D6
S315000016CC010B019B0028E8D14C462B78A34207D18D
S315000016DC631C3278DBB29A422B7004BF00232B704A
S315000016EC9AF800301C44E4B2414620461DF0A6FE92
S315000016FC18B9394620461DF02DFD05B0BDE8F08F12
S3150000170C832E0020B92F0020842E0020024B18783F
S3150000171C00F07F00704700BF32300020034B187872
S3150000172C0130C0B2187000F07F00704732300020D4
S3150000173C1FB5030A8DF80E300323009303AB8DF807
S3150000174C0D0000F0C5F905B05DF804FB1FB5030AE2
S3150000175C8DF80F1004218DF80E30009103AB8DF827
S3150000176C0D0000F0B5F905B05DF804FBF0B589B0D5
S3150000177C1768BDF838509DF83C60CDF809708DF8A7
S3150000178C12505768DDF840C0BDF84440CDF80D70D6
S3150000179C2D0A012E8DF811308DF813508DF814602A
S315000017AC16D0032E1BD1DCF80030CDF81530DCF842
S315000017BC0430CDF819309DF848308DF81D301623BD
S315000017CC0093BDF84C2002AB00F082F909B0F0BDD5
S315000017DC8DF81540240A8DF816400F23F0E70120EA
S315000017ECF4E71FB50C46194602238DF80D2000931D
S315000017FC0A4603AB0146204600F06AF904B010BD58
S3150000180C10B586B01C460B68CDF80D304B68CDF87C
S3150000181C11300A238DF815200093224603AB342190
S3150000182C00F056F906B010BD30B585B00024ADF801
S3150000183C0A20021D92B2012A1D46ADF80840ADF8E9
S3150000184C0610ADF8044003D94FF6FF72904207D14B
S3150000185C064A2B46127801A91BF0E6FC05B030BDF2
S3150000186C014601AA20461BF0A5FDF7E7CF1F002075
S3150000187C2DE9F04F834689B00C461F4690463AB385
S3150000188C104614F05FF9C0F3470A1FB3384614F03C
S3150000189C59F9C0F34709FFF741FF4FEA1B238DF8AF
S315000018AC18008DF81B400022240A062106A88DF884
S315000018BC19B08DF81A308DF81C408DF81DA014F057
S315000018CC3DFAADF8160038B9182009B0BDE8F08F0E
S315000018DC9246DAE7B946DEE74FEA4A01CBB2DC1D9F
S315000018ECE4B204EB4901C9B20DF11600019314F0F0
S315000018FC1CFC0028E8D10646F2B29245BDF816301B
S3150000190C15D8019906314A4601F0FE01184614F025
S3150000191C81FC0026F5B2A945BDF816802AD84346A7
S3150000192CBDF8482006215846FFF77EFFCDE7550047
S3150000193CEDB2294640460393029214F057FC029AE4
S3150000194C039BD11C4900024601F0FE01184614F017
S3150000195C61FC691CBDF816300293C9B2404614F0FE
S3150000196C45FC029BE91D0246C9B2184614F052FC0E
S3150000197C0136C1E76D00EDB22946384614F036FC47
S3150000198C21460246404614F045FC691CC9B238464D
S3150000199CBDF8168014F02AFC611C0246C9B24046FA
S315000019AC023414F037FC0136E4B2B3E7F0B589B073
S315000019BC0E4602A905460BF07DFD002800F081803D
S315000019CCFFF7ACFE8DF8100013F0D0F88DF811006F
S315000019DC13F0CCF83D4A8DF81B501368CDF8133034
S315000019EC5368CDF81730BDF808308DF81C30000A56
S315000019FC1B0A8DF812008DF81D3000229DF80D3053
S31500001A0C8DF81E300F2104A814F098F9ADF80600D5
S31500001A1C002858D000279DF80D30FAB2934207F1F2
S31500001A2C010718D801231A460DF10E010DF1060017
S31500001A3C14F0C0F900279DF80E30FAB2934207F164
S31500001A4C010723D8BDF80630324620210020FFF7C7
S31500001A5CEBFE09B0F0BD002128460BF057FD012323
S31500001A6C8DF805001A460DF1050104460DF1060028
S31500001A7C14F0A0F90123240A1A460DF105010DF103
S31500001A8C06008DF8054014F095F9C4E701212846A7
S31500001A9C0BF03CFD01238DF805001A460DF10501EE
S31500001AAC04460DF1060014F085F90123240A1A46A2
S31500001ABC0DF105010DF106008DF8054014F07AF9CB
S31500001ACCB9E7A320C5E71820C3E700BF4A2F0020BB
S31500001ADC2DE9F0411C460E4617469DF81880054622
S31500001AECFFF71CFE002220704146204614F026F912
S31500001AFC034630B13A4631462846BDE8F041FFF779
S31500001B0C93BE1820BDE8F08108B5FEF79FFD0FF0D7
S31500001B1C25FABDE8084006F0D9BE08B5FFF75FF810
S31500001B2C0FF044FA07F06AF808F080FABDE80840AE
S31500001B3C08F076BB08B5FFF753F807F0B3F8BDE825
S31500001B4C084008F02BBEFFF77CB8FFF780B80020E2
S31500001B5C704738B504460D46FFF798F829462046D7
S31500001B6CBDE838400AF074BDFFF773B8FFF77EB8CE
S31500001B7C4022032101200FF023BF0122032110462E
S31500001B8C0FF01EBF0022032101200FF019BF022205
S31500001B9C032101200FF014BF0122002109200FF0B0
S31500001BAC0FBF000070B5134C8A00A31822449B7813
S31500001BBC1D09062D98BF104E03F00F0394BF755DDB
S31500001BCCFF25062B05719ABF0C4DEB5CFF23437169
S31500001BDCFF3B18BF01238371D37014F82130084CD6
S31500001BEC4370537883700146204604F007FD0123A9
S31500001BFCA36070BD742E0020C7930300C09303002E
S31500001C0C002000407FB5224922480022FF23CDE95F
S31500001C1C01228DF8093003784C6C8D6B03922C40A5
S31500001C2CE407DBB228D5022B26D88C6C1A4901EBBB
S31500001C3C8301A5B2CE78194906B326041ED521F820
S31500001C4C13201749012202FA03F30A781343154AA3
S31500001C5C0B701378CBB100231478DC40E407D9B2AF
S31500001C6C0FD501701078012404FA03F34340DBB25C
S31500001C7C01A81370FFF796FF04B070BD21F813503E
S31500001C8CDFE70133032BE7D1F6E703230370F3E712
S31500001C9C00200040802E0020742E00205C2A00209C
S31500001CAC822E0020812E002007B5012308226946CA
S31500001CBC0020FFF733F94FF6FD71684600F0CAF8BD
S31500001CCCFF28024606D1064901200DF0F5FF03B0A8
S31500001CDC5DF804FB034901200DF0EEFFF7E700BFAA
S31500001CECCE930300EA93030007B501230822694645
S31500001CFC0020FFF713F9684600F010F930B90449D3
S31500001D0C01200DF0D9FF03B05DF804FB0149F7E79C
S31500001D1C649403007294030007B5012308226946F4
S31500001D2C0020FFF7FBF8684600F076F8FF2802461D
S31500001D3C06D1064901200DF0BFFF03B05DF804FB88
S31500001D4C034901200DF0B8FFF7E700BF0794030025
S31500001D5C179403002DE9F7431C49DFF87880DFF868
S31500001D6C789004200DF0A8FF002634464FF6FF7736
S31500001D7C0BF0E2FCF5B2A8420AD80BF0DDFC2246C9
S31500001D8C0346134904200DF097FF03B0BDE8F0831A
S31500001D9C28461DF029FAB842034615D02A46414674
S31500001DAC04200DF0A5FF2846694601341DF004FAFF
S31500001DBC0420E4B20DF06CFF10B168460DF0EEFE97
S31500001DCC494604200DF078FF0136D1E73494030020
S31500001DDC4D94030042940300D437030037B500201A
S31500001DECFFF762F804460220FFF75EF8E4B20546F8
S31500001DFC69460120FFF7B5F8AAB26946204600F0FD
S31500001E0C5BF822460346034904200DF055FF03B048
S31500001E1C30BD00BF87940300F7B5064698B1002580
S31500001E2C4FF6FF77ECB220461DF0DEF9B84209D02A
S31500001E3C694620461DF0C0F908226946304631F045
S31500001E4C3FFC08B11DB1FF24204603B0F0BD0125AF
S31500001E5CE8E700002DE9F34106460F4600254FF64C
S31500001E6CFF78ECB220461DF0BFF9404511D069460B
S31500001E7C20461DF0A1F908226946304631F020FCB7
S31500001E8C58B125B1FF24204602B0BDE8F0810125EA
S31500001E9CE7E7314620461DF0D1FA4FF6FD739F4217
S31500001EAC03D0394620461DF055F9024A535D0133DD
S31500001EBC5355E8E7852E00200128F8B50546174648
S31500001ECC12D80B4E325C8AB91DF0B8FA044638B9F2
S31500001EDC4FF6FD739F4203D0394628461DF03AF95A
S31500001EEC012373552046F8BD6A24FBE77624F9E7EF
S31500001EFC852E0020012810B50CD8074B1A5C0AB1A8
S31500001F0C013A1A541C5C1CB94FF6FF711DF022F9EC
S31500001F1C002000E06A2010BD852E002008B5FFF7D2
S31500001F2C7BFFBDE80840FFF7E5BF012070470120A5
S31500001F3C7047012070470000014B00221A70704751
S31500001F4CE035002008B5134B00221A70124B197895
S31500001F5C11B11A70FEF74DFE104B1A78032A0ED8E3
S31500001F6CDFE802F0020E100201224FF47A710C48DF
S31500001F7C1A7013F0C3F928F065F80A4B188008BDDF
S31500001F8C02221A70064B00221A70BDE80840FEF7B2
S31500001F9C31BE00BFE0350020551F0020982E0020D2
S31500001FACF0350020822A002038B528F04BF8134B68
S31500001FBC134A1C8800231370124A1370124B1A789A
S31500001FCC041B012AA4B203D001221A70FEF710FEDC
S31500001FDCB4F57A7F0D4D09D32978B1FA81F1490907
S31500001FEC2046FEF759FB03232B7038BD2046FEF71F
S31500001FFCDCFB074813F076F9F5E700BF822A0020D0
S3150000200CE8350020F0350020551F0020982E0020C2
S3150000201CE035002008B5134B00221A70124B1978C4
S3150000202C11B11A70FEF7E8FD104B1A78032A0ED878
S3150000203CDFE802F0020E100201224FF47A710C480E
S3150000204C1A7013F05BF927F0FDFF0A4B188008BDD8
S3150000205C02221A70FA21064813F050F9BDE808401E
S3150000206CFEF7CBBDE0350020561F00209A2E00202F
S3150000207CD0350020842A002038B527F0E3FF134B17
S3150000208C134A1C8800231370124A1370124B1A78C9
S3150000209C041B012AA4B203D001221A70FEF7ABFD71
S315000020ACB4F57A7F0D4D09D32978B1FA81F1490936
S315000020BC2046FEF74FFB03232B7038BD2046FEF758
S315000020CC23FB074813F00EF9F5E700BF842A00201E
S315000020DCD8350020D0350020561F00209A2E00201F
S315000020ECE03500200E280BD10C4B01291B7803D1AF
S315000020FC23B90B4813F0F6B8002BFAD10948F9E7C7
S3150000210C0F280AD1084B01291B7802D11BB90748A5
S3150000211CF0E7002BFBD10648ECE77047972E002022
S3150000212CF0350020E8350020992E0020D03500200F
S3150000213CD83500202DE9F74FDFF87C8007460D4691
S3150000214C1446994603F10C0A4FF0010B15B903B06E
S3150000215CBDE8F08F102D2E46164A28BF1026F3B276
S3150000216C494651F8040B42F8040B5145F9D1019339
S3150000217C9AF800101170104888F80F40002288F861
S3150000218C0E2088F800B001341DF0F6F90B48019BBF
S3150000219CE4B23A4612F8011B10F801CF81EA0C01A1
S315000021AC02F8011CD11BC9B29942F3D3AD1BADB2D7
S315000021BC1746CBE7662F0020652F0020642F0020E2
S315000021CC2DE9F04F85B016460293BDF838900F9B5B
S315000021DC354A01930D468046034600F10C0153F82F
S315000021EC040B42F8040B8B42F9D1304C1B7813705C
S315000021FC4923237020464FEA1923A37384F80F90C2
S3150000220C1DF0BAF9237883EA1623237063784FF00E
S3150000221C020A734063705246A34600271FE0C2F1C0
S3150000222C1001F31B89B29BB28B42A2EB050028BFAF
S3150000223C0B46039029460398A1EB050C1FFA8CFC60
S3150000224C08189C45C0B21AD31A44D2B21F44102A9D
S3150000225C1D44BFB203D120461DF08EF90022B742B1
S3150000226CDDD312B158461DF087F9BAF1010F4FF0C4
S3150000227C0002029D4E460BD04FF0010ACDE711F835
S3150000228C01CB1BF800E08CEA0E0C0BF800C0D2E771
S3150000229C064B01991B6801980B604346042105B057
S315000022ACBDE8F04FFFF746BF662F0020652F0020D4
S315000022BCF7B5099FBDF82040CDE9004706461D46F7
S315000022CCFFF77EFF2CB13346012221462846FFF745
S315000022DC31FF002003B0F0BD2DE9F743BDF828709F
S315000022EC0F4C1E46054688469146034639463046EF
S315000022FC0122FFF71FFF33464A4641462846CDE9E1
S3150000230C0074FFF75DFF042221460B9831F0D8F9D3
S3150000231C002814BF7E20002003B0BDE8F08300BF68
S3150000232C9D2E002073B51C46044D8B181E592E602D
S3150000233CCDE90045FFF7D0FF02B070BD0B30002091
S3150000234C0020704700207047002070477047704788
S3150000235CF7B50A4E0A4F0B4D002456F8243003B934
S3150000236C3B6835F8142000920749224601200134B7
S3150000237C0DF0A2FC292CF0D103B0F0BD581E0020A4
S3150000238C0C1F00205A3700209C94030008B5FFF759
S3150000239CDFFFBDE8084000F0F1B8000007B50020EB
S315000023ACFEF782FDC2B2282A0DD8084B53F822300C
S315000023BC0BB9074B1B68074931F812100091012025
S315000023CC05490DF079FC03B05DF804FB581E00209E
S315000023DC0C1F00205A3700209C940300FFF7B8BF4F
S315000023EC7047000038B50020FEF75EFD044601205C
S315000023FCFEF75AFD0549054601200DF05DFCA9B214
S3150000240CE0B2BDE8384000F0D1B800BFA794030095
S3150000241CF7B50A4E0A4F0B4D002456F8243003B973
S3150000242C3B6835F8142000920749224601200134F6
S3150000243C0DF042FC292CF0D103B0F0BD581E002043
S3150000244C0C1F0020083700209C94030073B502ABC8
S3150000245C03E906000446019D12F00AF806462046DA
S3150000246C12F016F89DF800008EB1202C0FD82B78A0
S3150000247C012B37D803EB4313394923444FF6FF7529
S3150000248C31F81320AA4202D0013221F81320354B21
S3150000249C354933F8146031F814504FF6FF729642F2
S315000024AC1CBF721C23F8142004F0FD02092A31D13A
S315000024BC9A8A898A02448A42B4BF9A82998233F8EC
S315000024CC1430AB4204D3AE4202D22046FEF796FB42
S315000024DC264B0025EA5CA24228D00135112DF9D1F4
S315000024EC02B070BD022BD2D11D4B33F814204FF61F
S315000024FCFF718A421CBF013223F8142004F1210219
S3150000250C4FF6FF7533F81210A9421CBF013123F8A0
S3150000251C1210BCE71D2CD2D15A8F1118A942BDBF7F
S3150000252C02F1FF3212185A875D87C8E72AF085FA3E
S3150000253C0F4B1B788342044603D8DD210D4800F06F
S3150000254C03FA04EB04140C4A2C444FF6FF7132F8D0
S3150000255C14308B42C4D0013322F81430C0E700BFCC
S3150000256CAC3700205A370020083700201398030098
S3150000257C991F00208F970300E63600205222002177
S3150000258C014831F0D0B800BF5A3700205222FF2143
S3150000259C014831F0C8B800BF0837002008B5FFF76E
S315000025ACEDFFBDE80840FFF7F1BF0000014B23F833
S315000025BC101070470837002010B5104C1049A16157
S315000025CC032321660F491022C4E904330E4BE36141
S315000025DCC4E9191200230D49A362E01D6362E3628C
S315000025EC2367E3666367226231F0AFF80849204639
S315000025FC31F0ABF82023A37110BD00BF00340020CE
S3150000260C24980300532E0020632E00202D980300DF
S3150000261C319803002DE9F84F1F4B16461A78814660
S3150000262C8A4698460AB9FFF7C7FF182707FB09879A
S3150000263C3D6FD7F86CB05D452BD9BC6E796E641BBB
S3150000264CB44228BF344629445046224631F047F856
S3150000265CBB6E2544A244361BAB4208BF0025ABEB30
S3150000266C050B5E4528BF5E4656B1182303FB09834E
S3150000267C3246596E5046294431F031F834443544CB
S3150000268C24B1182303FB0988C8F870502046BDE80E
S3150000269CF88F0024E3E700BF00340020F8B50446A9
S315000026AC0E46174604F0B7FC3A4605463146204618
S315000026BCFFF7B0FF0446284604F0B3FC2046F8BDED
S315000026CC2DE9F843124D1E462B788146884617464F
S315000026DC0BB9FFF771FF04F09EFC696900244FF0FB
S315000026EC180C0CFB04535A6E2AB10134A142F8DCC7
S315000026FC4FF0FF3407E0A142FADDC3E918989F6654
S3150000270C1A67DA665E6704F08CFC2046BDE8F8832F
S3150000271C00340020FFF750BF012270B5114604208B
S3150000272C04F0B4FA1A4B1B4D1A681B4842F001020E
S3150000273C1A60DA684FF0604442F08072DA60174B28
S3150000274CC4F8B03F00260223C4F8006EC4F8806EAD
S3150000275CC5F8F03004F096F900F5D520104B114A67
S3150000276C00F2FC40B0FBF3F00F4B01382861C4F8C3
S3150000277C406E1A600D4BC4F8803E4FF48073C5F85A
S3150000278C0433D4F8003E43F48073C4F8003E70BDA5
S3150000279CF0ED00E0000004E006000E0055CEACC5DE
S315000027ACF8590D00FF030040001000E00D00010079
S315000027BC10B50121114804F019F8114B01241C60C5
S315000027CC002005F043F9234604220221052005F0DA
S315000027DC8FF9204610F05CF9FFF79EFF10F05CF9BC
S315000027EC084B1C70FFF796FF234640220649074804
S315000027FCFFF766FF064B1860C00F10BD00350A00C8
S3150000280C10881442242F0020CB2F00203898030068
S3150000281C7C1D0020024B1868003018BF0120704741
S3150000282CF0ED00E0054A4170D12303701378C370B4
S3150000283C090A8170591C1170042070471030002051
S3150000284C2DE9F74F0E78042E83460F4661D927F0F3
S3150000285CF9FBDFF8C480751DEDB282464FF6FF71A9
S3150000286C0024C146D8F800305BB1A54209D90191C4
S3150000287C27F0E8FBA0EB0A0080B2B0F5FA7F0199CD
S3150000288C07D9281B18BF012004233B7003B0BDE8F1
S3150000289CF08FB4B3012C37D0EA1E631C9442DBB222
S315000028AC1CD1CCB24FF06042D2F8800EC00713D5C3
S315000028BC1046D9F80CC04CF0807CC9F80CC0D0F886
S315000028CC00CE4CF4807CC0F800CED0F820C0BCF111
S315000028DC000FEED082F820401C46C3E7AA1E944295
S315000028EC02D1C1F30724DDE76A1E94420FD05C4483
S315000028FC019314F8024C2046FEF7B6FD019B0146E7
S3150000290CD0E75B240123CDE734460223CAE75D24D6
S3150000291CC8E70020B8E700BFF0ED00E000B5084BB3
S3150000292C91B0402269461868FFF7B8FE20B1C2B2D2
S3150000293C6946122029F062FF11B05DF804FB00BF56
S3150000294C7C1D002042DE704738B504460D4611F05A
S3150000295C41FA00F0D3FD04F056FB2946204629F037
S3150000296C19FF2B4622460549012009F049F929464B
S3150000297C2046BDE83840FFF7E5BF00BF4898030086
S3150000298C6D4B2DE9F0416D4C5A68A2655A6AE265A9
S3150000299C6B4AD2F800122166D2F8042262669A6A51
S315000029ACA266DA6AE2661A6B22675A6B6267DB6B9F
S315000029BCA26BA367D4E90F5312F0040F18BF1D4680
S315000029CC27F024FB002285420346606522655CD312
S315000029DC5C4A954259D8AA696264E969A164B4F85B
S315000029EC5810C1F30801062953D157498A4250D3CE
S315000029FC56498A424DD211884DF64262914248D1CF
S31500002A0C6268C4F89420A268C4F8982040F2017059
S31500002A1C4F4A5049934238BF13460A468B423BD322
S31500002A2CD31AE3640023C4E91F33C4E92133C4E990
S31500002A3C2333484E444FDFF814C1AE4232D8D4E9A2
S31500002A4C1FC7D4E92165D4E923124FF0000E013BD0
S31500002A5CDBB2FF2B41D1BEF1000F05D0C4E91FC775
S31500002A6CC4E92165C4E92312B4F85830C3F308034A
S31500002A7CDA1E0F2A55D8DFE802F03A5B474A54545F
S31500002A8C5454545154545454543E0022C4E9112203
S31500002A9C1D464FF42060BBE71E68B6F1CD3FBFD193
S31500002AAC0433BBE756F8042DBA42C6D36245C4D2EA
S31500002ABCD107C2D5002104EB010EDEF87CE0964569
S31500002ACCBBD004311829F6D10BB9052301E0013B23
S31500002ADCDBB204EB8301CA67AFE7E0464FF0010EA9
S31500002AECBC4637462E460D4611464246AFE740F6E3
S31500002AFC0120BDE8F081184BDB6913F0020F40F2A0
S31500002B0C025318BF1846F4E740F60320F1E740F6E7
S31500002B1C0423B0F5206F08BF1846EAE740F60520F7
S31500002B2CE7E7013B40F60722412B98BF1046E0E74A
S31500002B3C40F60220DDE700BF00ED00E000000020BB
S31500002B4C00E100E000180020240300009037030089
S31500002B5C9C00002020180020002005400E2804D0E0
S31500002B6C0F280CBF01200220704700207047000080
S31500002B7C2DE9F04385B04FF48073ADF80C3001F0BD
S31500002B8CBFFB01211548DFF85C80DFF85C9003F091
S31500002B9C2DFE0121124803F029FE0024012703AB68
S31500002BAC0122E35C18F8336008EBC30330465D681A
S31500002BBC0023294604F09CFF4946E8B201F0B8FB15
S31500002BCCCDE9007701232A462946304604F04AFF10
S31500002BDC14B105B0BDE8F0830124E0E740410500DF
S31500002BEC00350A005C9803007D2C000008B5FFF741
S31500002BFCB5FF022816BF024B0020185C08BD00BFAB
S31500002C0C9B2E002008B5FFF7A9FF02281CBF014B1D
S31500002C1C195408BD9B2E002008B5FFF79FFF02280C
S31500002C2C05D0034A135CB3FA83F35B09135408BD4E
S31500002C3C9B2E002008B5FFF791FF022811D00A4AF7
S31500002C4C12F8301030234B4302EBC00207491944EB
S31500002C5C536803EBC1039B001868B0FA80F0400977
S31500002C6C08BD0020FCE700BF5C9803001CA01042C6
S31500002C7C70B50446FFF7DEFF0026054601E0002688
S31500002C8C1D462046FFF7D6FFA8420346F7D101366C
S31500002C9C052EF2D12046FFF7A9FFA8420BD02946F4
S31500002CAC2046FFF7AFFF2046FFF7A0FF0146204660
S31500002CBC0AF07CFA70BD2046FFF7AEFF2046FFF700
S31500002CCC95FF014620460AF071FA2046FFF7A4FF4D
S31500002CDCE9E7000010B505F06DF9044605F064F956
S31500002CEC0022012101FA02F3234014D01B4B33F8C6
S31500002CFC12301B4A062B13D040F207218B420DD102
S31500002D0C184919480C68844208D14CF23C334B8064
S31500002D1C0B88138012E00132112AE3D1104AF8E72E
S31500002D2C104B58884FF20F01884214D11988B1F50F
S31500002D3C406F10D211804CF23C325A80084B1A88E4
S31500002D4C40F201739A4201BF084A094BD2E90001CD
S31500002D5CC3E9000110BD4FF4C061EBE76C980300AA
S31500002D6C202C00200000002007020FF09400002009
S31500002D7CFC260020014B1888000A7047202C0020E6
S31500002D8C014B1888704700BF202C00202DE9F04F0E
S31500002D9C4D4CA36BD4F850B0D4F840A05A074FBF93
S31500002DAC0027D4F84CB0D4F85480D4F83CA05ABFC1
S31500002DBC464FDFF84091DFF84091454A48BFB84688
S31500002DCC13F0080F434B18BF1A46B7EB08061CBF87
S31500002DDC7308642187B01FBF01FB0B33B3FBF6F3FB
S31500002DEC9BB205933C49CDF800804B46CDE9017A60
S31500002DFC08BF0596054600F0D7FFB3B2CDE90093A0
S31500002E0C1FFA8BF2059B3549284600F0CDFFA36BC4
S31500002E1C5B070AD49C3E5E4507D1626D304B9A42E5
S31500002E2C03D23049284600F0BFFFBA4501D8C24547
S31500002E3C04D24A462C49284600F0B6FF284608F02C
S31500002E4CD9FE236E0BB9636EBBB32849DFF8AC8091
S31500002E5CDFF8AC90284600F092FF00260127226E80
S31500002E6C07FA06F3134207D058F8262013781BB13D
S31500002E7C4946284600F083FF0136202EEFD1DFF8B5
S31500002E8C7C80DFF87C9000260127626E07FA06F339
S31500002E9C134209D008EB8603D3F8802013781BB1B4
S31500002EAC4946284600F06BFF0136122EEDD1284616
S31500002EBC07B0BDE8F04F00F071BF0D49284607B0CA
S31500002ECCBDE8F04F00F070BF000000202018002075
S31500002EDC7E9B0300779B0300869B0300B49B030039
S31500002EEC9C000020ED9B0300199C0300379C0300FB
S31500002EFC669C0300729B030006B703007C9C0300D0
S31500002F0C8EAD03002DE9F8430446FFF739FF40F672
S31500002F1C0123984239D010D840F2025398421DD062
S31500002F2C40F20173984224D040F20153984213D1D7
S31500002F3C6549204600F038FF22E040F6032398420C
S31500002F4C6CD03DD340F60423984200F09C8040F6AA
S31500002F5C0523984200F0B580BDE8F8835B4920460E
S31500002F6C00F022FF5A4B5B495A6C204600F01CFFBE
S31500002F7C06E0574A5849D2E92523204600F014FFAB
S31500002F8C2046BDE8F84308F035BE514D534920465E
S31500002F9C00F00AFF95F86C309F0703D55049204680
S31500002FAC00F002FF95F86F305E0603D54D492046BA
S31500002FBC00F0FAFE95F96F30002BE1DA4A49B8E7D2
S31500002FCC434D4A49204600F0EFFE95F868309807C5
S31500002FDC04D06A6C3F49204600F0E6FE95F968304D
S31500002FEC002B04DA6A6F4249204600F0DDFEDFF85A
S31500002FFC0C81DFF8189100260127AA6E07FA06F352
S3150000300C134207D058F8262013781BB149462046A0
S3150000301C00F0CAFE0136082EEFD1B1E72C4D35492A
S3150000302C204600F0C1FE2B496A6C204600F0BCFE1F
S3150000303C95F86930590703D52F49204600F0B4FEA0
S3150000304C95F96930002B04DA6A6F2949204600F09D
S3150000305CABFE2A4FDFF8B4800826AB6EF340DA07D6
S3150000306C07D557F8262013781BB14146204600F0A9
S3150000307C9BFE0136102EF0D195F86830002B7FF4AC
S3150000308C7FAF1F4955E7124D1E491C4FDFF87C8058
S3150000309C204600F089FE6A6C0E49204600F084FE3C
S315000030AC1026AB6EF340DB0707D557F826201378AE
S315000030BC1BB14146204600F077FE01361A2EF0D1A0
S315000030CC5EE711494BE700BF019903003E990300E7
S315000030DC000000206E99030087990300A199030054
S315000030ECB9990300F3990300269A0300629A030028
S315000030FC879A0300AB9A0300C29A030090980300C8
S3150000310C089B0300389B0300519B0300A39A030002
S3150000311C2DE9F84F164C174FDFF86080DFF860A0EA
S3150000312C0646002523785FFA85FB0BB9BDE8F88FB8
S3150000313C57F8043B10492246304600F020FE227810
S3150000314C04F1010982B9627882B10BF003010329FB
S3150000315C0CBF41465146304600F011FE304608F091
S3150000316C49FD01354C46DDE74C46E8E74146F2E7BA
S3150000317C449D030004000020F8980300D237030096
S3150000318C34BA030000F00CB800F00AB800F008B826
S3150000319C00F006B800F004B800F002B800F000B871
S315000031AC72B61EF0080F09D01EF0040F0DD0DFF812
S315000031BC50E0AEE8FF1F6FF002000CE0DFF840E0D5
S315000031CCAEE8FF1F6FF00E0005E0DFF834E0AEE866
S315000031DCFF1F6FF006006946EFF309828EE80700C1
S315000031EC86460848084C854501D3A54501D384F38A
S315000031FC0888FFF7C5FB84F3088826F0E3FE000079
S3150000320C04000020000F002020180020FFF7C6BF86
S3150000321C10B501210A4803F0E9FA0121094803F027
S3150000322CE5FA002304220A21022004F061FC0023A3
S3150000323C042209210320BDE8104004F059BC00BF4C
S3150000324C4041050000350A00064B03EBC00213F89B
S3150000325C3030516801228A4030215943024B5A5072
S3150000326C704700BFD4A303000CA00046064B03EB2B
S3150000327CC00213F83030516801228A40302159437C
S3150000328C024B5A50704700BFD4A303000CA0004455
S3150000329C074A12F8301002EBC002536801229A401A
S315000032AC30234B4303F1804303F520439A61704767
S315000032BCD4A3030010B10020FFF7C6BFFFF7D6BF9B
S315000032CC37B57F2A14BF154600254BF2346291425E
S315000032DC044619D17F2241F2020168460823FFF702
S315000032ECEFFF08222649684630F0EAF930B9082380
S315000032FC7F2241F2F0116846FFF7E2FF6B4603CBE3
S3150000330C2060616003B030BD41F2F012914219D1D8
S3150000331C1C490A6C496C01381D1F002BF2D0013B6D
S3150000332C9D4200F8012F4FEA1222F6D103340022F7
S3150000333C9A42E7D00132042A04F8011F4FEA112100
S3150000334CF6D1DFE701F47042B2F5805F0BD1C1F321
S3150000335C0B0404F17E641A4603FB054103B0BDE879
S3150000336C304030F0BCB901F46042B2F5005FC9D10F
S3150000337CC1F30B0404F17E6404F58044EBE700BF53
S3150000338C6AA40300B081E00F70B5054616461C46CC
S3150000339CDBB14BF23463994210D1082C28BF0824B8
S315000033AC7F2241F202012346FFF78AFF2246074994
S315000033BC284630F085F940B941F2F01123463246E1
S315000033CC2846BDE87040FFF77BBF70BD6AA40300BA
S315000033DC2DE9F8431646C20704460F4603D5DD21F0
S315000033EC2748FFF7B1FAF30703D5DE212448FFF788
S315000033FCABFA04F47043B3F5805F21D1C4F30B042C
S3150000340C04F17E64731E1F4A23449342254603D956
S3150000341CE3211B48FFF798FADFF8649005EB0608E2
S3150000342C454522D156B372083946204626F051FD41
S3150000343C20B340F20F111248BDE8F843FFF784BAE7
S3150000344C04F46043B3F5005F07D1C4F30B0404F135
S3150000345C7E6404F580442546DEE7EA210848FFF73A
S3150000346C73FA6FF00F050024D6E715F8013BFF2B16
S3150000347CD6D0F4214846FFF767FAD1E7BDE8F883C2
S3150000348CF0A30300FF07E00FFFF77CBE1FB5012179
S3150000349C1648174C03F0AAF901221146104603F000
S315000034ACF5FB0421072004F06FFD124A10685168E1
S315000034BC01AB03C39068186001238DF804300D230B
S315000034CC8DF80C3001A9032320468DF80D3004F03D
S315000034DCA2FF094B04220221C3F8802161621A6003
S315000034ECA36A0B43A36204B010BD00BF30253E0097
S315000034FC0020054072A4030000E100E0014804F03E
S3150000350C7EBF00BF00200540A52803D1002102483C
S3150000351C04F061BF704700BF00200540024B1868DD
S3150000352C00F00100704700BF00200540024A936876
S3150000353C002BFCD1704700BF0020054000207047CF
S3150000354C002070477047000013B572B603F05BFDA0
S3150000355C7A4B7B495B698B6000230B76E0204B76BC
S3150000356C8B764023C876087748778877CB77754B68
S3150000357C8022602481F8202081F8210081F8220025
S3150000358C81F8232083F8002383F80143202483F851
S3150000359C024383F8034383F8042383F8052383F853
S315000035AC062383F8072383F8082383F8092383F873
S315000035BC0A2383F80B2383F80C2383F80D2383F853
S315000035CC0E2383F80F2383F8102383F8112383F833
S315000035DC122383F8132383F8142383F8152383F813
S315000035EC162383F8172383F8182383F8192383F8F3
S315000035FC1A2383F81B2383F81C2383F81D2383F8D3
S3150000360C1E2383F81F2383F8202383F8212383F8B2
S3150000361C224383F8232383F8242383F8252383F872
S3150000362C262383F8272383F8282383F8292383F872
S3150000363C2A2383F82B2383F82C2383F82D2383F852
S3150000364C2E2383F82F2383F8302383F8312383F832
S3150000365C3203CB6823F4E0631B041B0C43F0BF63FB
S3150000366C43F40133CB604B6943F400734B614B69F4
S3150000367C43F010034B614FF4E0234B6206F01AF84B
S3150000368CFFF728FBEFF308832F4A043B4FF0CD31AD
S3150000369C93421DD22D4A2E4892B2002130F043F8A7
S315000036AC62B62C4B01225A642B4BDB6C1B0E12D1CF
S315000036BC2A492B484AF6E8520A60026842F004028C
S315000036CC02600B60274A136843F40053136004E04E
S315000036DC1960043BDCE7012BF4D0234A136A23F46C
S315000036EC441343F488131362A2F580420124136831
S315000036FC43F48073136002F546522432136843F484
S3150000370CF8431360194B1C6105F018FF01F092FA8F
S3150000371C002368460093ADF804308DF8034003F09F
S3150000372C33FF00F0E9F826F09FFC00F0F3F82AF0DE
S3150000373CFDF80F4806F096FB02B010BD0000000025
S3150000374C00ED00E000E100E0C00E0020E40D0000FA
S3150000375CA000002000000E40B081E00F90310E401A
S3150000376C98310E4064310E4000400E4000300E4041
S3150000377C9CAC030040F2016026F024BCFEF7E6BDCB
S3150000378C08B500210B20FEF7DFFDBDE80840FEF76B
S3150000379CDEBD08B1FDF77CBAFDF779BA032000F05F
S315000037ACA7B9000008B5FFF7E5FA044B0B289ABF3A
S315000037BC00B203EB8000184608BD00BFC6A5030087
S315000037CC08B5FFF7DDFA044BC0F30F22C0B253F86D
S315000037DC223003EB800008BD90A5030010B5FFF75F
S315000037ECC9FA0446FFF7CCFAC0B228B9012C24D189
S315000037FC64F07F04E4B216E0072CF9D801A353F861
S3150000380C24F000BF33380000FD37000031380000CB
S3150000381C37380000373800003B3800003F380000CE
S3150000382C433800000924204610BD0224FBE703247C
S3150000383CF9E70B24F7E70624F5E70446F3E700BFA0
S3150000384C38B50D46044688BB284B4A1E18605042B4
S3150000385C5041013D08F056FC032D46D8DFE805F033
S3150000386C02131E2001210846FDF713FAFFF756FE38
S3150000387C1F4B187010B1A520FFF746FE0120BDE8BE
S3150000388C384008F03FBC02210120FDF702FAFFF791
S3150000389C45FE50B3BDE83840FFF748BE0421F3E7B8
S315000038AC05210120BDE83840FDF7F3B9104B1B7814
S315000038BC1BB101210F4804F08EFD631E584258417E
S315000038CC013C08F035FC032C0FD8DFE804F00208A5
S315000038DC0A0C012008F02CFC01210020E2E7022151
S315000038ECFBE70421F9E70521F7E738BD482A002054
S315000038FC2F30002000200540044AD2F81C341B0C43
S3150000390C1B04C2F82434024A1360704700A000401E
S3150000391CA023002008B505F0C3FF18B19221044876
S3150000392CFFF712F803490448BDE8084006F06CB8E6
S3150000393CF6A50300781B0020A0240020134A144986
S3150000394CD2F82834D2F81C241340124A9BB21360C6
S3150000395CD1F80001400502D50868400506D4D1F817
S3150000396C0001400305D50968480302D543F48033AA
S3150000397C1360074BD3F80011490006D51B685B0092
S3150000398C42BF136843F400331360704700A0004035
S3150000399C00E100E0482A0020012838B50AD0831E31
S315000039AC012B26D9042826D0052801D103F05EFD6B
S315000039BC002400E0044603F01FFB012105462046C7
S315000039CC05F09EFF284603F01BFB03F011FB03F0EA
S315000039DC1EFB06F03FF803F00DFB03F00DFB002178
S315000039EC0546204605F08CFF2846BDE8384003F016
S315000039FC07BB0224DFE70324DDE7FFF7CDBF00009A
S31500003A0C252910B40C4607D80B49097889B1E1B2BF
S31500003A1C5DF8044B28F0D8BBFF2903D95DF8044B9D
S31500003A2CFFF7B2BC40F2951104485DF8044BFEF763
S31500003A3C8BBF5DF8044B70472330002072A6030041
S31500003A4C37B5104C01230020237008F055FD254690
S31500003A5C40B1002008F050FD20B10023237049200E
S31500003A6C03B030BD02230DF106007F220021FFF7C3
S31500003A7CC7FFBDF806300020B3F57F7F1CBF28704A
S31500003A8C0720EDE72330002025282DE9F0410546D7
S31500003A9C884616461F4616D8124B1B788BB1124C0D
S31500003AAC237823B14FF4D0711048FEF74DFF012354
S31500003ABC237042463B463146E8B228F0C7FB00234A
S31500003ACC2370BDE8F081FF2805D931461A46BDE8BA
S31500003ADCF041FFF77DBC4FF4D6710448BDE8F041C8
S31500003AECFEF732BF233000201130002072A60300EF
S31500003AFC024B1B780BB128F09BBC7047233000207F
S31500003B0C70B5164685180AB9304470BD01F00F031E
S31500003B1C0A2B34BF302437242344013A090905F80B
S31500003B2C013DD2B2EFE70000F0B5F9B100281CDA7E
S31500003B3C2D23B0F1004F137000D04042012115E047
S31500003B4C801B8642ECB205F10105F9D904B927B1FF
S31500003B5C4D1C303454540127E9B20133092B09D1D9
S31500003B6C303050540131C8B2F0BD00210023DFF8CB
S31500003B7C0CC01F465CF823600025E2E7E8A60300AC
S31500003B8C2DE9F04F95B04FF0000B02AC81468A46FA
S31500003B9C17461D465E46A0463B7863B902ABE41A4F
S31500003BACE4B2224619465046C847002840F0938096
S31500003BBC3444E0B290E0252B13D0BBF1000F14D1A6
S31500003BCC2370013412AB9C426DD3A4EB0804E4B20F
S31500003BDC224641465046C84700287CD12644F6B2B8
S31500003BEC60E0BBF1000F00D101373B78632B00F08E
S31500003BFC92801BD8392B09D8302B80F09E80002B55
S31500003C0CCCD0252B51D04FF0000BDBE7582B00F016
S31500003C1C8B80622BF7D12B6801936B6800934FF066
S31500003C2C000B009B9B4543D10835ECE7702B1ED04F
S31500003C3C17D8642B01D06C2BE5D16C2B05F1040B3A
S31500003C4C28686CD17B78752B14BF0121002101D01B
S31500003C5C642B00D101372246FFF766FF04445D460C
S31500003C6CD1E7752BE9D0782B5ED0732BCBD1A4EB97
S31500003C7C0804E4B2224602A9504605F1040B2D684D
S31500003C8CC84740BB2644F6B2C4B201302B5D002BAC
S31500003C9CFAD1224629465046C847E0B926445D4625
S31500003CACF6B283464446013776E723700134AAE719
S31500003CBC019B204613F80B100222FFF721FF12ABD3
S31500003CCC984204460ED3A0EB0804E4B222464146C1
S31500003CDC5046C84718B1002015B0BDE8F08F2644F1
S31500003CECF6B24446009B013B5B4582BF2023237002
S31500003CFC013412AB9C420BD3A4EB0804E4B222466B
S31500003D0C41465046C8470028E5D12644F6B24446FB
S31500003D1C0BF1010B85E72B6823700435C6E7752B71
S31500003D2C0CBF0021012196E7204602222978FFF7D5
S31500003D3CE7FE05F1040B044691E77A7802F0DF0200
S31500003D4C582A19D1322B07F1010B09D129882F1DBD
S31500003D5C04222046FFF7D4FE3D4604465F4652E752
S31500003D6C342B09D12F1D2D680422290C2046FFF770
S31500003D7CC7FE0422A9B2EDE74FF0010B22E70EB401
S31500003D8C03B503AA52F8041B019208F095FAC0B2C7
S31500003D9C02B05DF804EB03B0704700000149FFF771
S31500003DACEEBF00BFD23703000EB433B505AA0546E5
S31500003DBC52F8041B019208F07FFA04462846FFF7D6
S31500003DCCEDFFE0B202B0BDE8304003B0704708B575
S31500003DDC08F072FAC0B208BD2DE9F04F9B46584B5D
S31500003DEC85B01B78109F9DF844A0DDF850800646E0
S31500003DFC89461546002B00F09280072A00F2918026
S31500003E0C0E9B002B00F08D800F9B002B00F0898001
S31500003E1C129BB3F5006F00F38480012801D1002FAB
S31500003E2C7FD0484B03EB05131B7B002B7BD0464CFA
S31500003E3C1022002168462FF076FC04EB4514102264
S31500003E4CB9F1000F5CD1494620462FF06CFCA378E3
S31500003E5C43F01003A370E37843F03003E370BAF138
S31500003E6C000F03D1DBB243F00303E3703649129B18
S31500003E7CCDF800B06A01013B885A01EB020C63F3E2
S31500003E8C0E1088520E9BCCF808300F9BCCF80430E1
S31500003E9C9DF84C109CF80330012E61F383038CF8CB
S31500003EAC033042D11323CCF80C309CE80F000CF1F4
S31500003EBC100E8EE80F00DCF81C20CCF814706FF096
S31500003ECC030161F39F02B9F1010FCCF81C2004D158
S31500003EDC0F9BCCF81830CCF804701A492A018B18B1
S31500003EEC41F802800027159A5A6028469F605E7337
S31500003EFC2246694603F088FE384605B0BDE8F08FC9
S31500003F0C002120462FF00FFC1023A3700323E3702F
S31500003F1CBAF1000FAAD1DBB243F03003A5E70B4888
S31500003F2CEBE70B48E9E70B48E7E7B8F1000FD4D10C
S31500003F3C9CF8023068F304138CF80230CDE700BF0E
S31500003F4C932F0020B4210020A0220020028000F034
S31500003F5C018000F0078000F038B5104B1B78054641
S31500003F6CBBB1C0B103F057F80D49002301EB0312A6
S31500003F7C147B3CB92B6001231373146003F051F8C6
S31500003F8C204638BD0133082BF0D103F04AF805481A
S31500003F9CF7E70548F5E70548F3E700BF932F002040
S31500003FACB4210020048000F0028000F0018000F0B3
S31500003FBC38B503F030F80B4A05460023D1180C7BB4
S31500003FCC5CB91033802BF9D103F0D4FD064B28468F
S31500003FDC1C7003F026F8204638BD284603F021F85D
S31500003FEC0248F9E7B4210020932F0020058000F049
S31500003FFC0D4B1B7810B5044693B1072812D803F065
S3150000400C0AF80A4B03EB04131A7B2AB100241C731F
S3150000401C03F007F8204610BD03F003F80448FAE74E
S3150000402C0448F8E70448F6E7932F0020B421002053
S3150000403C068000F0028000F0018000F013B5164BEC
S3150000404C1868019000238DF8043002F0E4FF134B3E
S3150000405C1C7824B102F0E5FF114802B010BD012214
S3150000406C1A7002F0DEFF0F4B1C731C7783F82C4082
S3150000407C83F83C4083F84C4083F85C4083F86C40F2
S3150000408C83F87C4004230DEB03008DF8073003F016
S3150000409C91FD2046E1E700BF0CA70300932F0020FB
S315000040AC038000F0B421002010B588B00E9C079454
S315000040BC0D9C06949DF8304005940B9C04949DF839
S315000040CC284003940024CDE9013400920B460246A5
S315000040DC21462046FFF780FE08B010BD10B588B00B
S315000040EC0E9C07940D9C06949DF8304005940B9CF1
S315000040FC04949DF8284003940024CDE901340092E1
S3150000410C0B46024601212046FFF766FE08B010BD9D
S3150000411C08B50A4B1B785BB107280BD8084B03EB89
S3150000412C00131B7B43B1002103F03AFD002008BDB0
S3150000413C0448FCE70448FAE70448F8E7932F002004
S3150000414CB4210020028000F0018000F0078000F00E
S3150000415C08B50A4B1B785BB107280BD8084B03EB49
S3150000416C00131B7B43B1012103F01AFD002008BD8F
S3150000417C0448FCE70448FAE70448F8E7932F0020C4
S3150000418CB4210020028000F0018000F0078000F0CE
S3150000419C08B50A4B1B7853B107280AD8084B03EB12
S315000041AC00131B7B3BB103F081FD002008BD0548C5
S315000041BCFCE70548FAE70548F8E700BF932F00200F
S315000041CCB4210020028000F0018000F0078000F08E
S315000041DC0D4B1B7893B1072812D889B10B4B03EB07
S315000041EC00131B7B73B10A4B1A6A012303FA00F006
S315000041FC10401ABF00200B700870704705487047B6
S3150000420C0548704705487047932F0020B4210020BD
S3150000421C00200E40028000F0018000F0078000F0C4
S3150000422C0B4B1B7810B50C4663B107280CD859B14B
S3150000423C084B03EB00131B7B43B103F04DFD2060D1
S3150000424C002010BD0448FCE70448FAE70448F8E7E8
S3150000425C932F0020B4210020028000F0018000F092
S3150000426C078000F02DE9F843174E326EF36E12EA12
S3150000427C030800D5FEE7154CDFF8549001270025FE
S3150000428C18EA070F16D02368B7669BB1A168626857
S3150000429C0131A16028469847637B012B0AD148B9A6
S315000042AC09EB4513197B1A7F60F3410160F3410258
S315000042BC19731A770135082D4FEA470704F11004D4
S315000042CCDED1BDE8F88300BF00200E40B4210020EB
S315000042DCA022002070B5094E0446012504B970BD14
S315000042EC94FAA4F0B0FA80F005FA00F324EA030479
S315000042FC56F82030002BF1D09847EFE7AC2400207D
S3150000430C08B5122002F09EFE28B1084B4FF480220D
S3150000431CC3F880211A600A2002F094FE28B1034BE0
S3150000432C4FF48062C3F880211A6008BD00E100E0FA
S3150000433C38B504460D4602F06EFE034B43F8245086
S3150000434CBDE8384002F06DBEAC240020054BD3F816
S3150000435C2804D3F81C24104000F05530C3F824046C
S3150000436CFFF7B8BF00A00040054BD3F82804D3F8DC
S3150000437C1C24104000F0AA30C3F82404FFF7AABF8F
S3150000438C00A0004038B500F063FB0A4C0A4B1A68D3
S3150000439C23680025C31A02B10BB9206038BD5169D8
S315000043AC994225BFCB1A53615561002338BF5B1A5E
S315000043BC9268F0E7F4250020D8290020C38870B550
S315000043CC04460D463BB905F0F9FA8542064602D27B
S315000043DC05F00EFB3546104A656113681046ABB9FD
S315000043EC1460A36011E06D1A996865611A4679B17B
S315000043FC0B465969A942F6D90029F4D052B19460FA
S3150000440CA36013B15969491B596170BD0022F0E7CD
S3150000441C0B46F4E70460F3E7D829002038B50F4BB8
S3150000442C0F4D1C682B685B6902201C4400F03EFB98
S3150000443C204600F013FB0B492A6800230B70D0882A
S3150000444C800702D501230B7038BD9268002AFBD079
S3150000445C50690344012BF2D9F6E700BFF42500207E
S3150000446CD8290020BA2F002070B516469DF81420C6
S3150000447C0271049A0260C0E903360022BDF81830B6
S3150000448C8260C38004460D4600F0E2FA3044A06117
S3150000449C3DB9E368656113B121682046984796B12A
S315000044AC354602F0B8FD0646FFF76CFF2946204656
S315000044BCFFF784FF054B1B68A34201D1FFF7AEFF44
S315000044CC304602F0AEFD002070BD00BFD82900209A
S315000044DC0C4A136800217BB183420AD1836879B1F7
S315000044EC8B6083681BB15A6941690A445A61002082
S315000044FC704719469B68EEE70028EFD002207047FC
S3150000450C1360EEE7D829002070B5154E02F083FD36
S3150000451C34780546FCB9134B1C60134B1C60134BCB
S3150000452C1C8000F053FA012000F0C0FA00F00CFBDE
S3150000453C0F4B0246186020B9284602F072FD232064
S3150000454C70BD23460B4840F2E7312EF001FF0A4BB3
S3150000455C186001233370284602F063FD0020EFE754
S3150000456C9B2F0020D8290020F42500201A2C00208F
S3150000457CD429002018FCFFFF002600202DE9F0416D
S3150000458C0546F8B102F047FD0F4F0646FFF7FAFE57
S3150000459C2846D7F80080FFF79BFF044628B1304623
S315000045AC02F03FFD2046BDE8F081A8453B6803D1EB
S315000045BC23B1FFF733FFF2E7002BF0D1022000F016
S315000045CC83FAECE72224EDE7D8290020F0B50D4656
S315000045DC85B016461F46044680B1FFF7CFFFBDF8DF
S315000045EC2C3002939DF828300022CDE90073294621
S315000045FC33462046FFF738FF05B0F0BD2220FBE717
S3150000460C38B50C46054698B191B100230B7002F0F3
S3150000461C02FD084B1B6801210BB122781AB102F07E
S3150000462C00FD002038BD9D420CBF21709B68F3E74E
S3150000463C2220F7E7D8290020F0B587B01F460023C3
S3150000464C0D4616468DF817300446A0B10DF117012C
S3150000465CFFF7D6FF9DF817207AB9BDF834300293D0
S3150000466C9DF830302946CDE9007320463346FFF7D6
S3150000467CFBFE07B0F0BD2220FBE70320F9E70000A4
S3150000468CF8B50C460646C8B1C1B102F0C4FC0546E5
S3150000469CFFF778FE73692360134B1B68B3420FD088
S315000046AC23B9284602F0BDFC03201CE05969226898
S315000046BC9B680A442260F1E700230FE0222012E0F7
S315000046CC0A4E276800F0C4F93368C01A8742F3D93A
S315000046DC00F0BEF93368C01A23681B1A28462360FB
S315000046EC02F09FFC0020F8BDD8290020F4250020FC
S315000046FCF8B507460E4602F08EFC124B1B680546B3
S3150000470C002423B9284602F08CFC1B2015E05A69BC
S3150000471C1444DA88BA4213D10B4F00F099F93B686E
S3150000472CC01AA0420AD200F093F93B68C01A201AAC
S3150000473C3060284602F075FC0020F8BD0020F7E733
S3150000474C9B68DEE7D8290020F4250020014B187859
S3150000475C704700BFBA2F002038B502F05CFC054646
S3150000476C00F076F90446284602F05BFC204638BD7C
S3150000477C70B502F050FC064600F06AF9094B1C882D
S3150000478C05460120A4B200F0B7F918B100F060F9A3
S3150000479C01340546304602F044FC002242EA05008C
S315000047AC214670BD1A2C0020014B1868704700BFBB
S315000047BCD42900200A4B1B68834210B50C460CD337
S315000047CC084B19684FF47A720023A0FB01012EF0F6
S315000047DCBFFD01302060002010BD2120FCE700BF8A
S315000047EC00260020D4290020104B1A6810B5B2B14F
S315000047FC4FF47A73A0FB0301531E134211D1B2FA84
S3150000480C82F2C2F11F02C2F12004A2F1200301FAC6
S3150000481C04F420FA02F2224321FA03F31A43104657
S3150000482C10BD00232EF094FD0246F8E7D429002093
S3150000483C00000000F8B516461BA3D3E900238B42F3
S3150000484C08BF82422AD3174B1A683AB34FF47A73CD
S3150000485CA0FB034503FB0155531E13EA020014D1BA
S3150000486CB2FA82F2C2F11F02C2F12007A2F12001B4
S3150000487C24FA02F305FA07F73B4325FA01F10B4339
S3150000488C25FA02F2C6E90032F8BD00232046294675
S3150000489C2EF05EFDC6E900010020F5E72120F3E7C6
S315000048ACAFF30080D4290020EFA7C64B378941000F
S315000048BCC2072DE9F04704460BD5414A138801334C
S315000048CC9BB21380FFF75EFD3E4B1B680BB1FFF7E7
S315000048DCA5FDA30771D502F09EFB0546FFF752FD19
S315000048EC0026DFF8E090B046D9F800400CB16369B9
S315000048FC93B1354B0022B8F1010F1A7003D1022E79
S3150000490C08BF83F80080002C46D0FFF787FD2846A9
S3150000491CBDE8F04702F085BB23465A693AB91A79C5
S3150000492C2179914288BF1C469B68002BF5D12846FD
S3150000493C02F077FB25699DB300231F4600F088F82B
S3150000494CA1692E46451AEB17AE4277EB030329DA1B
S3150000495C23690B44A361012322697AB173B9761BCF
S3150000496C02F059FB314605462046FFF727FDA369A1
S3150000497C22691344A361284602F053FBE368E688D8
S3150000498C08F1010813B121682046984702F043FB51
S3150000499C0546FFF7F7FCA7E7022000F095F8B6E707
S315000049AC0022164602F037FB82462046FFF790FDA2
S315000049BC504602F036FB0023CEE7BDE8F08700BF79
S315000049CC1A2C0020D82900201930002010B51C4BB9
S315000049DC86B05968186803AA03C2197A53F8090FE6
S315000049EC117001909A8817489B79ADF8082001211F
S315000049FC8DF80A30002401F0F9FE03A88DF80C405E
S31500004A0C8DF8104003F022FB01A901208DF804401B
S31500004A1C03F0FCFA0C4A536A23F4FF6323F00703F2
S31500004A2C536240F2FF7313620120946003F008FB9B
S31500004A3C064B4FF08042C3F880211A6006B010BDB9
S31500004A4C10A70300A00914000020044000E100E0B8
S31500004A5C014B9868704700BF00200440114A9368C8
S31500004A6C516D9269520704D4CA1A032A01D8994285
S31500004A7C0DD1C21A022A98BFD81C0A4BB0F1FF3FBF
S31500004A8C38BF013858655A6A42F004025A62064A1F
S31500004A9C137833B103490B6D43F002030B65002306
S31500004AAC1370704700200440581F00208207054AE7
S31500004ABC00F00103516A48BF43F004030B435362F1
S31500004ACC704700BF00200440830700F0010209D59F
S31500004ADC074B0121197007490B6D23F0030342F0B4
S31500004AEC04020B6503494B6A23EA02034B627047C7
S31500004AFC581F002000200440064B01289B6904D057
S31500004B0C022805D1C3F38000704703F001007047FB
S31500004B1C002070470020044010B502F07CFA094AC8
S31500004B2C93690446590703F0010003F0070348BFD5
S31500004B3C40F002001362FFF7BBFE2046BDE81040B2
S31500004B4C02F06FBA00200440014801F09BBF00BF81
S31500004B5CA0091400044B4FF04042DA621A6B22F0A3
S31500004B6C40421A63704700BF00300E402C48F0B527
S31500004B7C002203682B4D114654592CB11E68AC18F3
S31500004B8C002E36D1234601210832282AF4D101B150
S31500004B9C03602549254E0B680022144695592DB104
S31500004BAC1F68B518002F2BD12B4601240832282A52
S31500004BBCF4D104B10B6000681D4B026842B3DA698C
S31500004BCC007922F0FF020243DA611A6B42F080424E
S31500004BDC09681A630A68164BF2B1DA69097922F484
S31500004BEC7F4242EA0122DA611A6B42F000421A63F2
S31500004BFCF0BD1E792779B74284BF23460121C3E74E
S31500004C0C1F7995F804C0BC453CBF2B460124CDE763
S31500004C1C1A6B22F08042DBE71A6B22F00042E6E7C1
S31500004C2CDC25002084290020FC250020AC2900204E
S31500004C3C00300E4008B5174B174801221A70002198
S31500004C4C28222EF070FD2822002114482EF06BFD30
S31500004C5C134A144B1360144A1360144A1368526DAA
S31500004C6CC3F30743FF2B02D0D2B2FF2A01D1902205
S31500004C7C192303EB830302EBD3030D4A1360FFF7EF
S31500004C8C69FF0C4B0122C3F880211A60FFF76EFFF7
S31500004C9C002008BD522E002084290020AC290020BB
S31500004CACDC2500205C260020FC250020B081E00FCE
S31500004CBCB021002000E100E008B502F087FE9FED70
S31500004CCC137A07EE900AF4EEC77AF1EE10FA19D4BD
S31500004CDC9FED0F7AF4EE477AF1EE10FAC8BFF0EEBC
S31500004CEC477A17EE900A2EF081F80022094B2DF028
S31500004CFC1FFF0022084B2DF01BFF2EF0E1FA803827
S31500004D0C40B208BDF0EE477AEBE700BF000000C3E7
S31500004D1C0000FE420000E03F0000604070B5144CFD
S31500004D2C226B616A0A4011D5124B1B681E6836B19C
S31500004D3C00251D605D60FFF7BFFF2946B0474FF0A9
S31500004D4C0043E362BDE87040FFF710BF5300F9D58E
S31500004D5C094B1B681C6834B100221A605A60FFF7B5
S31500004D6CABFF0121A047024B4FF08042DA62E9E724
S31500004D7C00300E40FC250020DC250020FFF7CEBFBE
S31500004D8C38B141B1013AB2F5006F044838BF002082
S31500004D9C7047034870470148704700BF037000F026
S31500004DAC027000F038B504460D4602F034F9A288BC
S31500004DBC92B222B92A6002F034F9064838BD6388EB
S31500004DCC142202FB034308332B6002F02AF900205D
S31500004DDCF4E700BF0B7000F038B504460D4602F040
S31500004DEC1AF9A3889BB223B92B6002F01AF90C4866
S31500004DFC38BD6388E188142202FB034308332B6019
S31500004E0C63885A1C92FBF1F301FB13239BB263805C
S31500004E1CA388013B9BB2A38002F003F90020E7E7CD
S31500004E2C0B7000F0F8B5044617460D4602F0F3F881
S31500004E3CA388E2889A42064605D800233B6002F016
S31500004E4CF0F81648F8BD2388142202FB03430833F6
S31500004E5C05F1100C2A4603CA6245186059601546BE
S31500004E6C03F10803F6D1106818602388E188142230
S31500004E7C02FB034308333B6023885A1C92FBF1F375
S31500004E8C01FB13239BB22380A38801339BB23046CC
S31500004E9CA38002F0C6F80020D4E700BF0A7000F029
S31500004EAC034610B593F832300068012B0CD102F092
S31500004EBC49FF044630B1FFF777FC24235843B0FB77
S31500004ECCF4F40134204610BD03F0F6F9F1E70000C6
S31500004EDC427E30235343044A1A44437F03EBC203F6
S31500004EEC9B001868C0B270471CA0104213B51D4A2F
S31500004EFC002352F82340617F81420ED00133042BEC
S31500004F0CF7D102B010BD0028FBD19DF80730002B5D
S31500004F1CF7D06068FFF7FCF8F3E794F83130022B12
S31500004F2CEFD12046FFF7D4FF637D2075022BE8D125
S31500004F3C94F82E3003F0FF02002BE2D102A9606830
S31500004F4C01F8012DFFF744F9237D1BB194F82F309E
S31500004F5C002BD8D0002384F82F306068FFF7F8F8C0
S31500004F6CCFE700BFDC29002090F8323053B9036834
S31500004F7C0422DA601A699007FCD55A6F42F00202D5
S31500004F8C5A677047012B0CD103685A6C9107FCD4F5
S31500004F9C04225A609A689207FCD55A6D42F00202B6
S31500004FAC5A65704790F8323053B903680122DA60BB
S31500004FBC1A69D007FCD55A6F42F001025A6770473E
S31500004FCC012B0CD103685A6C9107FCD401225A6050
S31500004FDC9A68D207FCD55A6D42F001025A657047A1
S31500004FEC90F832303BB903685A6F22F001025A67C7
S31500004FFC0222DA607047012B09D103685A6C9207BA
S3150000500CFCD45A6D22F001025A6502225A6070478E
S3150000501C0F49104B0A782AB9C3E90022C3E90222C8
S3150000502C01220A70002253F82210814208D0013264
S3150000503C042AF8D1002153F821201AB943F821008B
S3150000504C0020704701310429F5D10348704700BF91
S3150000505C25300020DC290020027000F010B5044633
S3150000506CFEF7ECFF0021201DFEF776FF014608B186
S3150000507C044810BD04F10800FEF76EFF0028F8D0B6
S3150000508CF6E700BF0E7000F070B5054601F0C3FFE1
S3150000509C6C6B013C06466C634CB901F0ADFF2146C6
S315000050AC0546012004F02CFC284601F0A9FF3046E9
S315000050BCBDE8704001F0B5BF37B591F832200B68EA
S315000050CC012A0BBF9C681C69C4F3C004C4F34014CA
S315000050DC0D46084634B1FFF7D7FF022385F8383062
S315000050EC03B030BDFFF7DCFECDE9004401462B468C
S315000050FC024A05F13C00FFF79FFAF1E7C5500000A4
S3150000510C70B5044601F087FF636B05464BB901F099
S3150000511C73FF01210646084604F0F2FB304601F007
S3150000512C6FFF636B013363632846BDE8704001F083
S3150000513C78BF00007FB5012380F82C3090F8323010
S3150000514C93B90C4A036803920022049002924A68AF
S3150000515C0192012200920A68016980681C33FEF7ED
S3150000516CBDFF07B05DF804FB012BEAD0002380F8E5
S3150000517C2C30F6E7E15800002DE9F041012380F8C8
S3150000518C2D3090F8323088B004460F466BBB05685C
S3150000519C343501F040FF04F13C0680460DF11F0149
S315000051AC3046FFF72DFA40B99DF81F302BB130462B
S315000051BCFFF7E4F92046FFF767FF4046012601F0AA
S315000051CC30FF204684F83860FFF79AFF0E4B0393A6
S315000051DC0023049402937B68E1686068CDE9006360
S315000051EC2A463B68FEF760FF0BE0012B06D10568EB
S315000051FC2B6843F4005345F8283BCAE7002380F894
S3150000520C2D3008B0BDE8F08119520000F0B585B01C
S3150000521C03A9906A1446FFF7C5FD06462046FFF71C
S3150000522C3FFE002523460146CDE900551B4A04F1F5
S3150000523C3C00FFF701FA1A4B9E421FD0039B1D61DF
S3150000524C9D6001F0E8FE039AD768064627B1D2E9BD
S3150000525C002329462046B84703A9A06AFFF7BCFDE0
S3150000526CA06A83889BB263B103A9FFF79BFD0399E0
S3150000527C2046FFF781FF304601F0D3FE012005B032
S3150000528CF0BD84F82D3094F83230012B01BF226822
S3150000529C136823F400531360EDE700BFC5500000FC
S315000052AC0B7000F073B504460D46C07DE67E0029F2
S315000052BC34D001230422314602F01AFC01230222C7
S315000052CC217F207E02F014FC94F83130022B16D18B
S315000052DC00230122617F607E02F00AFC0023042277
S315000052ECA07EA17F02F004FC0123627F607E019305
S315000052FC0093114602F0B6FB002002B070BD032BE2
S3150000530CFAD100230122617F607E02F0F1FB0023BB
S3150000531C0422A17FA07E02F0EBFBEDE70B460A46CA
S3150000532C314602F0E5FB2B462A46217F207E02F011
S3150000533CDFFB94F83130022B10D12B462A46617FC5
S3150000534C607E02F0D5FB2B462A46A07EA17F02F09A
S3150000535CCFFB627F607E01950123C9E7032BCBD17E
S3150000536C2B462A46617F607E02F0C2FB2B462A46FC
S3150000537CCFE790F8323013B9036818697047012BE0
S3150000538C1CD103689B6803F00200DA0748BF40F0A3
S3150000539C0100590748BF40F008001A0748BF40F003
S315000053AC2000D90648BF40F040009A0648BF40F09E
S315000053BC80005B0603D540F4005070470020704710
S315000053CC2DE9F3410D46044600287FD001F023FE5B
S315000053DC012D064641D1A36A9B889BB2002B43D074
S315000053EC6068FEF7D5FE0023A06A84F82D3083880A
S315000053FC9BB273B101A9FFF7D5FC01996068394FCF
S3150000540C0831FEF70DFF019B1F61A06A83889BB2D2
S3150000541C83BB2046FFF7ADFF8304FAD5023D012D71
S3150000542C10D8A068FEF7B4FE0023606A84F82C300E
S3150000543C83889BB26BBB94F83130032B02D0204689
S3150000544CFFF7CEFD636B002B02DD2046FFF71CFE3B
S3150000545C304601F0E6FD002009E0022D38D1636AE2
S3150000546C9B889BB2002BD9D101F0DBFD1E4802B004
S3150000547CBDE8F08101A9FFF7AFFC019BD3F80C80C6
S3150000548CB8F1000FC1D09B68002239462046C047B0
S3150000549CBBE76946FFF786FC0099A068114F0831F7
S315000054ACFEF7BEFE009B1F61606A83889BB2002BD1
S315000054BCC1D06946FFF790FC009BDD68002DF3D048
S315000054CC9B68002239462046A847EDE70748CEE7F9
S315000054DC032DA3D1A36A9B889BB2002B80D1636A50
S315000054EC7AE700BF097000F0087000F0027000F057
S315000054FC436A9888C0B270472DE9F3410546406A65
S3150000550C84889846A4B200230E461746CDE900338C
S3150000551C3CB16946FFF746FC01A90446A868FEF7AC
S3150000552C7FFE009971B16CB94868019BC01A38604E
S3150000553CC8F800300B6833602846FFF71AFF02B034
S3150000554CBDE8F0810021C8F8001039603160F3E73E
S3150000555C836A9888C0B270472DE9F3410546806A84
S3150000556C84889846A4B200230E461746CDE900332C
S3150000557C3CB16946FFF716FC01A904466868FEF7BC
S3150000558C4FFE009971B16CB94868019BC01A38601E
S3150000559CC8F800300B6833602846FFF7EAFE02B005
S315000055ACBDE8F0810021C8F8001039603160F3E7DE
S315000055BC007D70472DE9F04104460E461746FFF76D
S315000055CCDFFB804670BB092001F04AFD0546A26A46
S315000055DC93889BB213B194F82E3033B394F83230CF
S315000055EC43BB23681D6905F002051DB92046FFF76C
S315000055FCBBFC0025012384F8303094F832301BBBF9
S3150000560C3744BE4220681AD103699E06FCD54DB9B3
S3150000561C94F832303BBB23685A6F22F002025A6769
S3150000562C0822DA604046BDE8F081002DD0D0FEF7A6
S3150000563C19FECCE7012BD9D123689D68D3E716F860
